:020000040800F2
:100000000000022061410008394000083F4000081C
:10001000454000084B400008514000080000000027
:1000200000000000000000000000000071A90008AE
:100030005740000800000000C1AB00086540000800
:10004000B1410008B1410008B1410008B1410008C8
:10005000B1410008B1410008B1410008B1410008B8
:10006000B1410008B1410008B1410008B1410008A8
:10007000B1410008B1410008B1410008B141000898
:10008000B1410008B1410008B1410008B141000888
:10009000B1410008B1410008B1410008B141000878
:1000A000B1410008B1410008B1410008B141000868
:1000B000B1410008B141000881400008B141000889
:1000C000B1410008B1410008B1410008B141000848
:1000D000B1410008B1410008B14100089540000855
:1000E000B1410008B1410008B1410008B141000828
:1000F000B1410008B1410008B1410008B141000818
:10010000B1410008B1410008B1410008B141000807
:10011000B1410008B1410008B1410008B1410008F7
:10012000A9400008B1410008BD400008B1410008E5
:10013000B1410008B1410008B1410008B1410008D7
:10014000B1410008B1410008B1410008B1410008C7
:10015000B1410008B1410008B1410008B1410008B7
:10016000B1410008B1410008B1410008B1410008A7
:10017000B1410008B1410008B14100080000000091
:08018000B1410008B141000883
:1001900010B5054C237833B9044B13B10448AFF3C1
:1001A00000800123237010BD8000002000000000AB
:1001B000E0BF000808B5034B1BB103490348AFF388
:1001C000008008BD0000000084000020E0BF00089F
:1001D00010F8012B11F8013B012A28BF9A42F7D0F1
:1001E000D01A70470000000000000000000000006E
:1001F00001F0FF01102A2BDB10F0070F08D010F8D8
:10020000013B013A8B422DD010F0070F42B3F6D1DB
:10021000F0B441EA012141EA014122F007047FF0F4
:1002200000070023F0E80256083C85EA010586EA4B
:10023000010685FA47F5A3FA87F586FA47F6A5FA87
:1002400087F68EB9EED1F0BC01F0FF0102F0070293
:1002500032B110F8013B013A83EA010313B1F8D13E
:100260000020704701387047002D06BF354603381F
:10027000073815F0010F07D1013015F4807F02BF58
:10028000013015F4C03F0130F0BC0138704700BFA9
:1002900081F0004102E000BF83F0004330B54FEA37
:1002A00041044FEA430594EA050F08BF90EA020FA4
:1002B0001FBF54EA000C55EA020C7FEA645C7FEA37
:1002C000655C00F0E2804FEA5454D4EB5555B8BF5A
:1002D0006D420CDD2C4480EA020281EA030382EACB
:1002E000000083EA010180EA020281EA0303362D5D
:1002F00088BF30BD11F0004F4FEA01314FF4801C30
:100300004CEA113102D0404261EB410113F0004F41
:100310004FEA03334CEA133302D0524263EB4303F8
:1003200094EA050F00F0A780A4F10104D5F1200E96
:100330000DDB02FA0EFC22FA05F2801841F10001F1
:1003400003FA0EF2801843FA05F359410EE0A5F1C5
:1003500020050EF1200E012A03FA0EFC28BF4CF0F6
:10036000020C43FA05F3C01851EBE37101F00045AC
:1003700007D54FF0000EDCF1000C7EEB00006EEBB9
:100380000101B1F5801F1BD3B1F5001F0CD3490843
:100390005FEA30004FEA3C0C04F101044FEA44529A
:1003A00012F5800F80F09A80BCF1004F08BF5FEA21
:1003B000500C50F1000041EB045141EA050130BD01
:1003C0005FEA4C0C404141EB0101013C28BFB1F513
:1003D000801FE9D291F0000F04BF01460020B1FA5E
:1003E00081F308BF2033A3F10B03B3F120020CDA31
:1003F0000C3208DD02F1140CC2F10C0201FA0CF00F
:1004000021FA02F10CE002F11402D8BFC2F1200C73
:1004100001FA02F120FA0CFCDCBF41EA0C01904029
:10042000E41AA2BF01EB0451294330BD6FEA040472
:100430001F3C1CDA0C340EDC04F11404C4F120025D
:1004400020FA04F001FA02F340EA030021FA04F36F
:1004500045EA030130BDC4F10C04C4F1200220FAC6
:1004600002F001FA04F340EA0300294630BD21FA04
:1004700004F0294630BD94F0000F83F4801306BFCA
:1004800081F480110134013D4EE77FEA645C18BFBE
:100490007FEA655C29D094EA050F08BF90EA020F55
:1004A00005D054EA000C04BF1946104630BD91EA4D
:1004B000030F1EBF0021002030BD5FEA545C05D150
:1004C0004000494128BF41F0004130BD14F580048F
:1004D0003CBF01F5801130BD01F0004545F0FE4103
:1004E00041F470014FF0000030BD7FEA645C1ABF38
:1004F000194610467FEA655C1CBF0B46024650EA6F
:10050000013406BF52EA033591EA030F41F400219A
:1005100030BD00BF90F0000F04BF0021704730B520
:100520004FF4806404F132044FF000054FF00001F5
:1005300050E700BF90F0000F04BF0021704730B5B6
:100540004FF4806404F1320410F0004548BF40428B
:100550004FF000013EE700BF42004FEAE2014FEAE0
:1005600031014FEA02701FBF12F07F4393F07F4FBB
:1005700081F06051704732F07F4208BF704793F0BE
:100580007F4F04BF41F40021704730B54FF46074D1
:1005900001F0004521F000411CE700BF50EA0102D4
:1005A00008BF704730B54FF000050AE050EA01027D
:1005B00008BF704730B511F0004502D5404261EBED
:1005C00041014FF4806404F132045FEA915C3FF42E
:1005D000D8AE4FF003025FEADC0C18BF03325FEACB
:1005E000DC0C18BF033202EBDC02C2F1200300FA7C
:1005F00003FC20FA02F001FA03FE40EA0E0021FAA1
:1006000002F11444BDE600BF70B54FF0FF0C4CF48E
:10061000E06C1CEA11541DBF1CEA135594EA0C0F40
:1006200095EA0C0F00F0DEF82C4481EA030621EA7B
:100630004C5123EA4C5350EA013518BF52EA0335B6
:1006400041F4801143F4801338D0A0FB02CE4FF068
:100650000005E1FB02E506F00042E0FB03E54FF098
:100660000006E1FB03569CF0000F18BF4EF0010E90
:10067000A4F1FF04B6F5007F64F5407404D25FEA8C
:100680004E0E6D4146EB060642EAC62141EA55513F
:100690004FEAC52040EA5E504FEACE2EB4F1FD0C81
:1006A00088BFBCF5E06F1ED8BEF1004F08BF5FEAFF
:1006B000500E50F1000041EB045170BD06F00046B1
:1006C00046EA010140EA020081EA0301B4EB5C045E
:1006D000C2BFD4EB0C0541EA045170BD41F4801156
:1006E0004FF0000E013C00F3AB8014F1360FDEBF7B
:1006F000002001F0004170BDC4F10004203C35DA57
:100700000C341BDC04F11404C4F1200500FA05F3D9
:1007100020FA04F001FA05F240EA020001F000427A
:1007200021F0004110EBD37021FA04F642EB0601F0
:100730005EEA430E08BF20EAD37070BDC4F10C041A
:10074000C4F1200500FA04F320FA05F001FA04F2DE
:1007500040EA020001F0004110EBD37041F10001CA
:100760005EEA430E08BF20EAD37070BDC4F12005D5
:1007700000FA05F24EEA020E20FA04F301FA05F23D
:1007800043EA020321FA04F001F0004121FA04F2E5
:1007900020EA020000EBD3705EEA430E08BF20EAB5
:1007A000D37070BD94F0000F0FD101F000464000EF
:1007B00041EB010111F4801F08BF013CF7D041EA71
:1007C000060195F0000F18BF704703F00046520075
:1007D00043EB030313F4801F08BF013DF7D043EA46
:1007E0000603704794EA0C0F0CEA135518BF95EAFC
:1007F0000C0F0CD050EA410618BF52EA4306D1D183
:1008000081EA030101F000414FF0000070BD50EAA1
:10081000410606BF1046194652EA430619D094EA2B
:100820000C0F02D150EA013613D195EA0C0F05D115
:1008300052EA03361CBF104619460AD181EA030169
:1008400001F0004141F0FE4141F470014FF0000021
:1008500070BD41F0FE4141F4780170BD70B54FF0BC
:10086000FF0C4CF4E06C1CEA11541DBF1CEA13553C
:1008700094EA0C0F95EA0C0F00F0A7F8A4EB05041E
:1008800081EA030E52EA03354FEA013100F0888015
:100890004FEA03334FF0805545EA131343EA1263DE
:1008A0004FEA022245EA111545EA10654FEA002693
:1008B0000EF000419D4208BF964244F1FD0404F54C
:1008C000407402D25B084FEA3202B61A65EB0305A8
:1008D0005B084FEA32024FF480104FF4002CB6EB65
:1008E000020E75EB030E22BFB61A754640EA0C00E5
:1008F0005B084FEA3202B6EB020E75EB030E22BF25
:10090000B61A754640EA5C005B084FEA3202B6EB65
:10091000020E75EB030E22BFB61A754640EA9C0024
:100920005B084FEA3202B6EB020E75EB030E22BFF4
:10093000B61A754640EADC0055EA060E18D04FEAB2
:10094000051545EA16754FEA06164FEAC30343EA52
:1009500052734FEAC2025FEA1C1CC0D111F4801F1F
:100960000BD141EA00014FF000004FF0004CB6E718
:1009700011F4801F04BF01430020B4F1FD0C88BFB7
:10098000BCF5E06F3FF6AFAEB5EB030C04BFB6EBC2
:10099000020C5FEA500C50F1000041EB045170BDB5
:1009A0000EF0004E4EEA113114EB5C04C2BFD4EBE2
:1009B0000C0541EA045170BD41F480114FF0000E66
:1009C000013C90E645EA060E8DE60CEA135594EAE2
:1009D0000C0F08BF95EA0C0F3FF43BAF94EA0C0FE5
:1009E0000AD150EA01347FF434AF95EA0C0F7FF45A
:1009F00025AF104619462CE795EA0C0F06D152EAAE
:100A000003353FF4FDAE1046194622E750EA410691
:100A100018BF52EA43067FF4C5AE50EA41047FF4A2
:100A20000DAF52EA43057FF4EBAE12E74FF0FF3C07
:100A300006E000BF4FF0010C02E000BF4FF0010CD8
:100A40004DF804CD4FEA410C7FEA6C5C4FEA430C51
:100A500018BF7FEA6C5C1BD001B050EA410C0CBFA0
:100A600052EA430C91EA030F02BF90EA020F002002
:100A7000704710F1000F91EA030F58BF994208BF69
:100A800090422CBFD8176FEAE37040F00100704726
:100A90004FEA410C7FEA6C5C02D150EA013C07D17D
:100AA0004FEA430C7FEA6C5CD6D152EA033CD3D0C8
:100AB0005DF8040B704700BF8446104662468C46C2
:100AC0001946634600E000BF01B5FFF7B7FF0028F5
:100AD00048BF10F1000F01BD4DF808EDFFF7F4FF1E
:100AE0000CBF012000205DF808FB00BF4DF808EDA9
:100AF000FFF7EAFF34BF012000205DF808FB00BFCC
:100B00004DF808EDFFF7E0FF94BF012000205DF8ED
:100B100008FB00BF4DF808EDFFF7CEFF94BF0120A2
:100B200000205DF808FB00BF4DF808EDFFF7C4FF9B
:100B300034BF012000205DF808FB00BF4FEA4102EE
:100B400012F5001215D211D56FF47873B3EB62521F
:100B500012D94FEAC12343F0004343EA505311F046
:100B6000004F23FA02F018BF404270474FF00000D8
:100B7000704750EA013005D111F0004008BF6FF016
:100B8000004070474FF00000704700BF4A0011D28C
:100B900012F5001211D20DD56FF47873B3EB6252D7
:100BA0000ED44FEAC12343F0004343EA505323FAE3
:100BB00002F070474FF00000704750EA013002D158
:100BC0004FF0FF3070474FF00000704753B94AB9FB
:100BD000002908BF00281CBF4FF0FF314FF0FF3045
:100BE00000F074B9ADF1080C6DE904CE00F006F820
:100BF000DDF804E0DDE9022304B070472DE9F04799
:100C0000089D04468E46002B4DD18A42944669D9F0
:100C1000B2FA82F252B101FA02F3C2F1200120FAD3
:100C200001F10CFA02FC41EA030E94404FEA1C4821
:100C3000210CBEFBF8F61FFA8CF708FB16E341EA1D
:100C4000034306FB07F199420AD91CEB030306F1A3
:100C5000FF3080F01F81994240F21C81023E6344C4
:100C60005B1AA4B2B3FBF8F008FB103344EA034468
:100C700000FB07F7A7420AD91CEB040400F1FF337D
:100C800080F00A81A74240F207816444023840EABA
:100C90000640E41B00261DB1D4400023C5E90043F3
:100CA0003146BDE8F0878B4209D9002D00F0EF8076
:100CB0000026C5E9000130463146BDE8F087B3FAA9
:100CC00083F6002E4AD18B4202D3824200F2F98091
:100CD000841A61EB030301209E46002DE0D0C5E994
:100CE000004EDDE702B9FFDEB2FA82F2002A40F0E0
:100CF0009280A1EB0C014FEA1C471FFA8CFE0126E3
:100D0000200CB1FBF7F307FB131140EA01410EFB86
:100D100003F0884208D91CEB010103F1FF3802D22D
:100D2000884200F2CB804346091AA4B2B1FBF7F027
:100D300007FB101144EA01440EFB00FEA64508D94A
:100D40001CEB040400F1FF3102D2A64500F2BB8087
:100D50000846A4EB0E0440EA03409CE7C6F12007D6
:100D6000B34022FA07FC4CEA030C20FA07F401FA1C
:100D700006F31C43F9404FEA1C4900FA06F3B1FBA5
:100D8000F9F8200C1FFA8CFE09FB181140EA01410A
:100D900008FB0EF0884202FA06F20BD91CEB0101A7
:100DA00008F1FF3A80F08880884240F28580A8F1FF
:100DB00002086144091AA4B2B1FBF9F009FB101151
:100DC00044EA014100FB0EFE8E4508D91CEB0101EF
:100DD00000F1FF346CD28E456AD90238614440EA92
:100DE0000840A0FB0294A1EB0E01A142C846A64612
:100DF00056D353D05DB1B3EB080261EB0E0101FA9B
:100E000007F722FA06F3F1401F43C5E900710026F7
:100E10003146BDE8F087C2F12003D8400CFA02FC4D
:100E200021FA03F3914001434FEA1C471FFA8CFE5D
:100E3000B3FBF7F007FB10360B0C43EA064300FB4D
:100E40000EF69E4204FA02F408D91CEB030300F1EB
:100E5000FF382FD29E422DD9023863449B1B89B2A2
:100E6000B3FBF7F607FB163341EA034106FB0EF32B
:100E70008B4208D91CEB010106F1FF3816D28B42D8
:100E800014D9023E6144C91A46EA004638E72E46A4
:100E9000284605E70646E3E61846F8E64B45A9D29C
:100EA000B9EB020864EB0C0E0138A3E74646EAE70B
:100EB000204694E74046D1E7D0467BE7023B6144B9
:100EC00032E7304609E76444023842E7704700BF22
:100ED00080B485B000AFF860B9607A60FB68074AFB
:100EE0001A60BB68064A1A607B6880221A6000BFDD
:100EF0001437BD465DF8047B704700BF9C0000209E
:100F0000F000002080B584B002AF03463960FB7169
:100F10000F4AFB7913700F4B1B789BB25B0099B2A1
:100F20000A23009301230A4A0B4804F0F9FD094BF8
:100F30001B789BB25B0099B21423009302233A689A
:100F4000054804F0EBFE00BF0837BD4680BD00BF7A
:100F5000884600200A0000204004002080B584B0AC
:100F600002AF03460A46FB711346BB710A4AFB797E
:100F70001370094ABB795370084B1B789BB25B0016
:100F800099B2142300930223034A054804F0C8FDD4
:100F900000BF0837BD4680BD884600200A000020FB
:100FA0004004002000000000B0B586B000AF87ED1F
:100FB000020B78607868FFF7BDFA04460D463A4B9D
:100FC000D3E90001D7E90223FFF766F902460B4691
:100FD00020462946FFF718FB02460B4610461946E5
:100FE00002460B46FFF75AF902460B4614461D46C9
:100FF0002E4BD3E9000128A3D3E90023FFF704FB1C
:1010000002460B4620462946FFF748F902460B46A2
:101010001046194622A3D3E90023FFF73FF9024601
:101020000B4610461946FFF789FD03467B617B6935
:10103000642B01DC64237B617B69C72B01DDC82342
:101040007B617868FFF776FA04460D46164BD3E9C4
:101050000001D7E90223FFF71FF902460B4620469D
:101060002946FFF7D1FA02460B46104619460F4BA8
:10107000D3E90023FFF712F902460B460B49C1E9F9
:1010800000230B4B1B687A691A6400BF1837BD46F2
:10109000B0BD00BFAFF300802D431CEBE2364A3FEA
:1010A0000000000000606240B8460020A04600201A
:1010B0009404002080B500AF00210620FFF74EFF0A
:1010C0000A2008F0CCFD80210320FFF747FF0A200B
:1010D00008F0C5FD07210720FFF740FF0A2008F0B0
:1010E000BEFD01210620FFF739FF0A2008F0B7FDF9
:1010F00020217F20FFF732FF0A2008F0B0FD2F21CA
:101100000120FFF72BFF0A2008F0A9FD0021002095
:10111000FFF724FF0A2008F0A2FD00217F20FFF73F
:101120001DFF0A2008F09BFD00210720FFF716FF96
:101130000A2008F094FD00BF80BD0000B0B5C6B025
:1011400000AF03F037F800F00DF900F0B5FC00F047
:101150008BFC00F0B5FB00F0B7FA00F033FA00F0BA
:1011600007FB00F057FC00F0FFF900F055FB00F022
:1011700057F900F0A7F90AF077F9052263496448A6
:1011800007F047FD634B07F1FC041D460FCD0FC46C
:1011900095E8070084E8070007F1FC0300211846E2
:1011A00008F011FD03465C4A13605C4B07F1E00454
:1011B0001D460FCD0FC495E8070084E8070007F12E
:1011C000E0030021184608F0FEFC0346544A136071
:1011D000544B07F1C4041D460FCD0FC495E807001A
:1011E00084E8070007F1C4030021184608F0EBFC6F
:1011F00003464D4A13604D4B07F1A8041D460FCD21
:101200000FC495E8070084E8070007F1A803002150
:10121000184608F0D8FC0346454A1360454B07F1D1
:101220008C041D460FCD0FC495E8070084E8070025
:1012300007F18C030021184608F0C5FC03463E4A1E
:1012400013603E4B07F170041D460FCD0FC495E8A7
:10125000070084E8070007F170030021184608F032
:10126000B2FC0346364A1360364B07F154041D4660
:101270000FCD0FC495E8070084E8070007F1540379
:101280000021184608F09FFC03462F4A13602F4B9D
:1012900007F138041D460FCD0FC495E8070084E818
:1012A000070007F138030021184608F08CFC0346BC
:1012B000274A1360274B07F11C041D460FCD0FC4AE
:1012C00095E8070084E8070007F11C030021184691
:1012D00008F079FC0346204A136007F58C73A3F5E8
:1012E0008C731E4A1C4615460FCD0FC495E80700A7
:1012F00084E807003B460021184608F064FC0346DA
:10130000174A136008F048FCFEE700BF680600209B
:10131000FC05002084C0000840060020A0C0000892
:1013200044060020BCC0000848060020D8C00008C1
:101330004C060020F4C000085006002010C1000830
:10134000540600202CC100085806002048C100089F
:101350005C06002064C100086006002080C100080F
:101360006406002080B594B000AF07F1200330225E
:10137000002118460AF040F907F10C0300221A6018
:101380005A609A60DA601A610023BB60224B1B6CC2
:10139000214A43F0805313641F4B1B6C03F08053AE
:1013A000BB60BB6800237B601C4B1B681B4A43F47B
:1013B00080431360194B1B6803F480437B607B6898
:1013C00002233B620123FB6210233B630023BB63C8
:1013D00007F12003184605F01DFA0346002B01D043
:1013E00002F0F6FA0F23FB6000233B6100237B61D0
:1013F0000023BB610023FB6107F10C0300211846A9
:1014000005F080FC0346002B01D002F0E1FA00BF9A
:101410005037BD4680BD00BF00380240007000401C
:1014200080B584B000AF3B4600221A605A609A60D3
:10143000DA60214B214A1A601F4B00225A601E4B72
:1014400000229A601C4B00221A611B4B01221A7663
:10145000194B002283F82020174B0022DA62164B2A
:10146000174A9A62144B0022DA60134B0122DA61A8
:10147000114B012283F830200F4B01225A610E4894
:1014800002F02EFF0346002B01D002F0A1FA0B233D
:101490003B6001237B600023BB603B461946064846
:1014A00003F090F80346002B01D002F091FA00BF40
:1014B0001037BD4680BD00BFF00200200020014073
:1014C0000100000F80B584B000AF3B4600221A60D7
:1014D0005A609A60DA60214B214A1A601F4B002241
:1014E0005A601E4B00229A601C4B00221A611B4B53
:1014F00001221A76194B002283F82020174B002274
:10150000DA62164B174A9A62144B0022DA60134BC8
:101510000122DA61114B012283F830200F4B0122A6
:101520005A610E4802F0DCFE0346002B01D002F0A7
:101530004FFA0C233B6001237B600023BB603B46DA
:101540001946064803F03EF80346002B01D002F08E
:101550003FFA00BF1037BD4680BD00BF38030020F2
:10156000002101400100000F80B500AF124B134A6B
:101570001A60114B124A5A600F4B00229A600E4BB0
:101580000022DA600C4B4FF480421A610A4B0022B1
:101590005A61094B00229A61074B0022DA61064B1F
:1015A00000221A62044804F077F90346002B01D0A8
:1015B00002F00EFA00BF80BD40040020005400403D
:1015C000A086010080B592B000AF07F14003002271
:1015D0001A605A6007F1240300221A605A609A6068
:1015E000DA601A615A619A613B1D20220021184677
:1015F0000AF002F8324B334A1A60314BA0225A608B
:101600002F4B00229A602E4B4FF47A72DA602C4BEB
:1016100000221A612A4B00225A61294B80229A61CA
:10162000274805F09EFD0346002B01D002F0D0F9BB
:1016300000233B6400237B6407F1400319462048E4
:1016400007F026F90346002B01D002F0C1F9602310
:101650007B620023BB620023FB6200237B630023C9
:10166000BB630023FB6307F124030C2219461448D3
:1016700006F0DEFA0346002B01D002F0A9F90023A0
:101680007B600023BB600023FB6000233B610023E1
:101690007B614FF40053BB6100233B623B1D194645
:1016A000074807F071F90346002B01D002F090F9CA
:1016B000034802F037FC00BF4837BD4680BD00BF7D
:1016C000940400200000014080B58CB000AF07F109
:1016D0000C0324220021184609F08EFF3B1D002236
:1016E0001A605A60214B4FF080421A601F4B002253
:1016F0005A601E4B00229A601C4B4FF6FF72DA6054
:101700001A4B00221A61194B00229A610323FB60D5
:1017100000233B6101237B610023BB610A23FB6142
:1017200000233B6201237B620023BB620A23FB622E
:1017300007F10C0319460D4805F0A2FF0346002BE4
:1017400001D002F045F900237B600023BB603B1D04
:101750001946064807F09CF80346002B01D002F01A
:1017600037F900BF3037BD4680BD00BFDC04002024
:1017700080B58CB000AF07F10C032422002118467D
:1017800009F03AFF3B1D00221A605A60204B214AA3
:101790001A601F4B00225A601D4B00229A601C4B9E
:1017A0004FF6FF72DA601A4B00221A61184B0022C2
:1017B0009A610323FB6000233B6101237B610023CB
:1017C000BB610A23FB6100233B6201237B62002390
:1017D000BB620A23FB6207F10C0319460C4805F0B3
:1017E0004FFF0346002B01D002F0F2F800237B608C
:1017F0000023BB603B1D1946054807F049F8034626
:10180000002B01D002F0E4F800BF3037BD4680BDA8
:10181000240500200004004080B586B000AF07F129
:10182000100300221A605A603B4600221A605A6078
:101830009A60DA60204B214A1A601F4B10225A60CE
:101840001D4B00229A601C4B4FF6FF72DA601A4B58
:1018500000221A61184B00229A61174805F098FD82
:101860000346002B01D002F0B3F800233B610023B4
:101870007B6107F1100319460F4807F009F803468A
:10188000002B01D002F0A4F800233B6001237B6011
:101890000023BB600023FB603B460022194606483C
:1018A00006F02AF90346002B01D002F091F800BFA0
:1018B0001837BD4680BD00BF6C0500200008004001
:1018C00080B596B000AF07F1480300221A605A6055
:1018D0009A60DA6007F1400300221A605A6007F14B
:1018E000240300221A605A609A60DA601A615A6111
:1018F0009A613B1D20220021184609F07DFE434BD2
:10190000434A1A60414B00225A60404B00229A60C1
:101910003E4B41F61F42DA603C4B00221A613B4BC2
:1019200000225A61394B00229A61384805F0CAFBFF
:101930000346002B01D002F04BF84FF48053BB64F8
:1019400007F148031946314806F034FA0346002BE4
:1019500001D002F03DF82D4805F003FC0346002BB2
:1019600001D002F035F800233B6400237B6407F1CB
:1019700040031946254806F08BFF0346002B01D093
:1019800002F026F860237B620023BB620023FB6227
:1019900000233B6300237B630023BB630023FB63C3
:1019A00007F1240300221946184806F041F90346BE
:1019B000002B01D002F00CF807F124030422194691
:1019C000124806F035F90346002B01D002F000F86A
:1019D00000237B600023BB600023FB6000233B618E
:1019E00000237B614FF40053BB6100233B623B1D2E
:1019F0001946064806F0C8FF0346002B01D001F047
:101A0000E7FF00BF5837BD4680BD00BFB4050020CA
:101A10000004014080B500AF114B124A1A60104B10
:101A20004FF4E1325A600E4B00229A600C4B0022B8
:101A3000DA600B4B00221A61094B0C225A61084BE9
:101A400000229A61064B0022DA61054807F002F88D
:101A50000346002B01D001F0BBFF00BF80BD00BFDB
:101A6000FC0500200048004080B582B000AF002394
:101A70007B60104B1B6B0F4A43F4800313630D4BC9
:101A80001B6B03F480037B607B68002205213820F8
:101A900003F013F9382003F02CF9002205213A2035
:101AA00003F00BF93A2003F024F900BF0837BD46D4
:101AB00080BD00BF0038024080B58AB000AF07F19A
:101AC000140300221A605A609A60DA601A610023D7
:101AD0003B613F4B1B6B3E4A43F0100313633C4B8F
:101AE0001B6B03F010033B613B690023FB60384B29
:101AF0001B6B374A43F004031363354B1B6B03F036
:101B00000403FB60FB680023BB60314B1B6B304A56
:101B100043F0010313632E4B1B6B03F00103BB6007
:101B2000BB6800237B602A4B1B6B294A43F00803E8
:101B30001363274B1B6B03F008037B607B68002358
:101B40003B60234B1B6B224A43F002031363204B81
:101B50001B6B03F002033B603B68002242F2E01182
:101B60001C4803F07FFE00223C211B4803F07AFE54
:101B70004FF4F0737B610123BB610023FB610323FE
:101B80003B6207F114031946124803F0CFFC3C23D3
:101B90007B610123BB610023FB6103233B6207F1EF
:101BA000140319460C4803F0C1FC4FF400537B6149
:101BB0000123BB610023FB6100233B6207F1140397
:101BC0001946044803F0B2FC00BF2837BD4680BD6B
:101BD00000380240001002400000024080B584B08E
:101BE00000AF78601A4A1B491B4809F00DFD1A48DE
:101BF00009F0C6FCF860FB68184A82FB03129211D8
:101C0000DB17D31A164A1360FA68144B83FB0213CE
:101C10009911D317CB1A4FF47A7101FB03F3D31A3E
:101C2000104A13600E4B1B68002B08D100F0E8F837
:101C30004FF6FF7305220C490C4806F058FF0522A9
:101C400003490A4806F0E5FF00BF1037BD4680BDD6
:101C5000680600209CC1000804000020D34D6210DB
:101C60008046002000000020A0C10008FC050020E4
:101C700080B582B000AF78607B681B7F012B40F09D
:101C80008980494B1B78002B1AD10021786806F017
:101C900059F90346454A1360434B01221A707B6889
:101CA0001B681A6A7B681B6822F00A021A627B684A
:101CB0001B681A6A7B681B6842F002021A6269E0BC
:101CC000394B1B78012B65D10021786806F03AF971
:101CD0000346374A13607B681B6800225A62344B04
:101CE0001A68324B1B689A4207D9314B1A682F4B3E
:101CF0001B68D31A2F4A13600FE02C4B1A682C4B29
:101D00001B689A4209D92A4B1A68284B1B68D31AB8
:101D100003F57F43FF33274A1360264B1B681846A1
:101D2000FEF7F8FB1EA3D3E90023FEF76DFC024685
:101D30000B46104619464FF000024FF08043FEF765
:101D40008DFD02460B4610461946FEF71FFF03465F
:101D5000DAB2194B1A70184B1B780433DAB2164BEF
:101D60001A70114B00221A707B681B681A6A7B6814
:101D70001B6822F00A021A627B681A687B681B687B
:101D8000126A1A620D4B1B68DA680C4B1B6822F052
:101D90000202DA6000BF0837BD4680BDAFF30080A5
:101DA0009CC420B07268A13FB4460020AC4600201D
:101DB000B0460020A8460020B54600206C05002053
:101DC00080B500AF01224FF400510B4803F04AFDEB
:101DD0000A2007F044FF00224FF40051064803F0A8
:101DE00041FD064B1B68DA68044B1B6842F0020297
:101DF000DA6000BF80BD00BF001002406C0500200B
:101E000080B500AF0C21104805F0FAF90F4B1B68A4
:101E100000225A630D4B1B6800229A63012208219D
:101E20000B4803F01FFD00220421094803F01AFDAE
:101E300001221021064803F015FD0022202104484C
:101E400003F010FD00BF80BD94040020B405002005
:101E50000000024000000000B0B586B000AF78601E
:101E60003960FFF7CDFF642007F0F9FE0C215048E0
:101E700005F0C6F94F497868FEF7AAF90346002B2A
:101E800004D14B4B1B6865221A640FE04A497868FD
:101E9000FEF79EF90346002B04D1454B1B68DC225C
:101EA0001A6403E0424B1B6893221A640122082142
:101EB000424803F0D7FC00220421404803F0D2FC42
:101EC000012210213D4803F0CDFC002220213B4897
:101ED00003F0C8FC3A4B1B6840F2DC525A63384BA3
:101EE0001B6840F2DC529A6300237B6107F05BFEC3
:101EF000386102F0C5F90346FB60324B1A6813469D
:101F00009B0013441B02BB602F4B00221A602F4919
:101F10004FF000024FF00003C1E900232C494FF0BD
:101F200000024FF00003C1E9002307E001209FED0C
:101F30001A0BFFF739F8012007F091FE224B1B68BE
:101F40001846FEF7F7FA16A3D3E90023FEF786FC3E
:101F500002460B461046194613A3D3E90023FEF7A9
:101F600053FB02460B4614461D463868FEF7E2FA5C
:101F700002460B4620462946FEF7B8FD0346002BD5
:101F8000D4D1FFF73DFF134B00221A6000BF183772
:101F9000BD46B0BDAFF300800000000000000000AF
:101FA00000000000005094400AD7A3703D0A35405D
:101FB00094040020A8C10008B0C10008000002403D
:101FC000B40500200000002084460020B846002010
:101FD000A046002080460020B0B584B000AF7860F5
:101FE00039600023FB60FFF70BFF642007F037FE2A
:101FF0005A23BB60A2494FF000024FF00003C1E931
:102000000023002208219F4803F02CFC0122042118
:102010009C4803F027FC002210219A4803F022FC80
:1020200001222021974803F01DFC0C21964805F061
:10203000E7F896497868FEF7CBF80346002B5AD1AB
:10204000914B1B6865221A64002208218D4803F019
:1020500009FC012204218B4803F004FC002210211A
:10206000884803F0FFFB01222021864803F0FAFB99
:10207000FA2007F0F4FD864B1B684FF4FA725A639E
:10208000834B1B6840F2DC529A630A2007F0E7FD9D
:1020900002E00A2007F0E3FD794BD3E90023144660
:1020A00083F00045BB68033B1846FEF733FA02464F
:1020B0000B4620462946FEF723FD0346002BE8D1B8
:1020C000FFF79EFE0A2007F0CAFDFFF799FE6E4B50
:1020D0001B6893221A64C82007F0C1FD07216D48D0
:1020E000FFF7BAFEC82007F0BAFDFFF789FE6A4B7A
:1020F00000221A60B1E069497868FEF769F8034682
:10210000002B53D1604B1B68DC221A64002208218B
:102110005C4803F0A7FB012204215A4803F0A2FB0C
:1021200000221021574803F09DFB01222021554831
:1021300003F098FBFA2007F092FD554B1B6840F224
:10214000DC525A63524B1B684FF4FA729A630A20AE
:1021500007F085FD02E00A2007F081FDBB6801332E
:102160001846FEF7D7F9464BD3E90023FEF7D2FC19
:102170000346002BEFD1FFF743FE0A2007F06FFD67
:10218000FFF73EFE404B1B6893221A64C82007F0FD
:1021900066FD07213F48FFF75FFEC82007F05FFD9F
:1021A000FFF72EFE3C4B00221A6056E0364B1B68B0
:1021B00093221A643A4B1B681A2202FB03F3FB605A
:1021C000334B1B684FF47A725A63314B1B684FF4E0
:1021D0007A729A63334B00221A6029494FF0000249
:1021E0004FF00003C1E900232F494FF000024FF0E8
:1021F0000003C1E9002308E04FF0FF309FED1A0B08
:10220000FEF7D2FE012007F02AFD264B1B68184678
:10221000FEF790F916A3D3E90023FEF71FFB024651
:102220000B461046194614A3D3E90023FEF7ECF938
:1022300002460B4614461D463868FEF77BF90246F7
:102240000B4620462946FEF751FC0346002BD3D10E
:10225000FFF7D6FD104B00221A6000BF1037BD46B5
:10226000B0BD00BFAFF30080000000000000000020
:1022700000000000007097400AD7A3703D0A35C0E7
:10228000B84600200000024094040020A8C10008C5
:10229000B4050020B8C1000880460020B0C1000885
:1022A0000000002084460020A0460020000000001E
:1022B0002DE9B04F88B000AF786199494FF0000226
:1022C0004FF00003C1E900230C21964804F098FF69
:1022D000944B1B68DC221A6401220821924803F007
:1022E000C1FA00220421904803F0BCFA0122102117
:1022F0008D4803F0B7FA002220218B4803F0B2FA90
:10230000FA2007F0ACFC894B1B6840F6B8325A63E0
:10231000864B1B684FF47A729A630A2007F09FFC81
:1023200002E00A2007F09BFC7D4BD3E90023BA6052
:1023300083F00043FB607B69063B1846FEF7FAF822
:1023400002460B46D7E90201FEF7DAFB0346002BF3
:10235000E7D1FFF755FD4FF000024FF00003C7E94A
:10236000062300220821704803F07CFA0122042190
:102370006D4803F077FA002210216B4803F072FADF
:1023800001222021684803F06DFA0A2007F067FC5B
:1023900000BF634BD3E900233A6083F000437B60C6
:1023A0007869FEF7C7F802460B46D7E90001FEF749
:1023B000BBFB0346002B00F09A80594BD3E9002366
:1023C000144683F000457869FEF7B4F802460B46E0
:1023D00020462946FDF760FF02460B461046194687
:1023E0004FF00002524BFEF70FF902460B4614461F
:1023F0001D4649A3D3E90023D7E90601FEF704F9F6
:1024000002460B4620462946FDF748FF02460B468A
:1024100010461946FEF792FB0246444B1B685A636E
:102420003F4BD3E90023924683F0004B7869FEF7D7
:1024300081F802460B4650465946FDF72DFF0246ED
:102440000B46104619464FF00002394BFEF7DCF8F8
:1024500002460B4614461D462FA3D3E90023D7E9B5
:102460000601FEF7D1F802460B4620462946FDF745
:1024700015FF02460B4610461946FEF75FFB024663
:102480002A4B1B689A63264BD3E90023904683F0BE
:1024900000497869FEF74EF802460B464046494629
:1024A000FDF7FAFE02460B46D7E90601FDF7F6FEF8
:1024B00002460B46C7E906230A2007F0D0FB184B5B
:1024C000D3E9002310461946FEF738FB0346013BCB
:1024D0007A699A420AD1124BD3E900231046194671
:1024E000FEF72CFB02467B69934200E000BF0A2006
:1024F00007F0B5FBFFF784FC0A4B1B6893221A64B4
:102500000C4B00221A604FF4FA7007F0A8FB00BFD2
:102510002037BD46BDE8B08F9A9999999999B93FEE
:10252000B84600209404002000000240B4050020BA
:1025300000407F4080460020B0B584B000AF786096
:102540008F494FF000024FF00003C1E900230C2136
:102550008C4804F055FE8B4B1B6865221A640122DF
:102560000821894803F07EF900220421864803F0FF
:1025700079F901221021844803F074F90022202106
:10258000814803F06FF9FA2007F069FB7F4B1B6865
:102590004FF47A725A637D4B1B6840F6B8329A63E7
:1025A0000A2007F05CFB02E00A2007F058FB7B687A
:1025B000063B1846FDF7BEFF714BD3E90023FEF73B
:1025C000A9FA0346002BEFD1FFF71AFC4FF00002E7
:1025D0004FF00003C7E90223002208216A4803F0F4
:1025E00041F901220421684803F03CF9002210213E
:1025F000654803F037F901222021634803F032F9DE
:102600000A2007F02CFB00BF5D4BD3E900231046E6
:102610001946FEF793FA02467B68934280F28E8059
:10262000574BD3E900457868FDF784FF02460B4617
:1026300020462946FDF730FE02460B461046194655
:102640004FF00002524BFDF7DFFF02460B461446E7
:102650001D4649A3D3E90023D7E90201FDF7D4FFC2
:1026600002460B4620462946FDF718FE02460B4659
:1026700010461946FEF762FA0246444B1B685A633D
:102680003F4BD3E900457868FDF754FF02460B46FF
:1026900020462946FDF700FE02460B461046194625
:1026A0004FF000023A4BFDF7AFFF02460B461446CF
:1026B0001D4631A3D3E90023D7E90201FDF7A4FFAA
:1026C00002460B4620462946FDF7E8FD02460B462A
:1026D00010461946FEF732FA02462C4B1B689A63E5
:1026E000274BD3E900457868FDF724FF02460B46E7
:1026F00020462946FDF7D0FD02460B46D7E90201E8
:10270000FDF7CCFD02460B46C7E902231C4BD3E97B
:10271000002310461946FEF711FA0346013B7A687A
:102720009A420AD1164BD3E9002310461946FEF708
:1027300005FA02467B68934200E000BF0A2007F0DA
:102740008EFAFFF75DFB0F4B1B6893221A64114B47
:1027500000221A604FF4FA7007F081FA08494FF02E
:1027600000024FF00003C1E9002300BF1037BD464F
:10277000B0BD00BFAFF300809A9999999999B93F7C
:10278000B84600209404002000000240B405002058
:10279000000079408046002080B582B000AF7860AC
:1027A00013494FF000024FF00003C1E9002301225A
:1027B0000821104803F056F8002204210D4803F0C8
:1027C00051F8012210210B4803F04CF8002220217F
:1027D000084803F047F8084B1B687A685A63064BB1
:1027E0001B687A689A6300BF0837BD4680BD00BF8A
:1027F000B846002000000240B405002080B582B039
:1028000000AF786013494FF000024FF00003C1E9B8
:10281000002300220821104803F024F8012204219B
:102820000D4803F01FF8002210210B4803F01AF89E
:1028300001222021084803F015F8084B1B687A682C
:102840005A63064B1B687A689A6300BF0837BD4617
:1028500080BD00BFB846002000000240B405002043
:1028600080B582B000AF78604FF4805209490A48C1
:1028700001F07AFD4FF480520849094801F074FDD7
:10288000084B1B6893221A64FFF79AFAC82007F0D6
:10289000E6F9F9E77C260020F00200207C06002003
:1028A000380300209404002080B500AFFEF702FC3E
:1028B0004FF47A7007F0D3F940F21450FFF76CFF31
:1028C00007E001209FED100BFEF76EFB012007F0E3
:1028D000C6F90F4B1B781E2BF3D8FFF791FA4FF474
:1028E0007A70FFF78BFF02E0012007F0B8F9084B80
:1028F0001B781D2BF8D9FFF783FA064B00221A60CC
:1029000000BF80BDAFF300800000000000000000A9
:10291000B54600208046002080B58CB000AF7860BE
:102920000023FB620021A44804F082FD4FF0000266
:102930004FF00003C7E90823A04B1B68102B00F2DF
:10294000318601A252F823F08D290008952900084C
:10295000CF290008092A0008432A0008A72A0008EE
:10296000392D0008652E0008DD2F00083B310008D6
:10297000AD320008D33300080734000833340008B0
:102980005F340008153500085D350008FFF738FA98
:1029900000F013BE4FF000024FF00003C7E906231A
:1029A000FEF788FB4FF47A7007F059F90023FB62B9
:1029B000834B1B6819468348FFF74EFA4FF6FF73A7
:1029C00005228149814806F092F800F0F6BD4FF0EB
:1029D00000024FF00003C7E90623FEF76BFB4FF43C
:1029E0007A7007F03CF9764B1B681846FFF7A4FD98
:1029F000012007F034F94FF6FF730522724973483E
:102A000006F075F800F0D9BD4FF000024FF000035A
:102A1000C7E90623FEF74EFB4FF47A7007F01FF963
:102A2000674B1B681846FFF743FC012007F017F9B6
:102A30004FF6FF7305226449644806F058F800F029
:102A4000BCBD4FF000024FF00003C7E90623FEF7BC
:102A500031FB4FF47A7007F002F940F21450FFF79F
:102A60009BFE07E001209FED520BFEF79DFA01202F
:102A700007F0F5F8564B1B78282BF3D8FFF7C0F971
:102A800040F21450FFF7BAFE02E0012007F0E7F829
:102A90004F4B1B78272BF8D9FFF7B2F9474B002291
:102AA0001A6000F08ABD4B4B1B68002B40F09680EB
:102AB0004FF000024FF00003C7E90623FEF7FAFAD1
:102AC0004FF47A7007F0CBF82D20FFF735FD42491F
:102AD0004FF000024FF00003C1E900230F213948F5
:102AE000FFF7BAF94FF4FA7007F0B9F82D20FFF7A5
:102AF000DFFB39494FF000024FF00003C1E900232A
:102B00002D20FFF7D5FB34494FF000024FF00003B2
:102B1000C1E900230F212B48FFF79EF92D20FFF775
:102B20000BFD2D494FF000024FF00003C1E90023D7
:102B30004FF6FF7305222449244805F0D8FF254BA2
:102B400001221A604FF47A7007F089F84FF0000202
:102B50004FF00003C7E90623FEF7ACFA4FF47A7092
:102B600007F07DF840F21450FFF716FE07E0012051
:102B70009FED0F0BFEF718FA012007F070F8144BC9
:102B80001B78282BF3D8FFF73BF940F21450FFF7DE
:102B900035FE02E0012007F062F80D4B1B78272B71
:102BA000F8D9FFF72DF9054B00221A6000F005BD9A
:102BB00000000000000000006C050020804600209E
:102BC00000000020B8C10008A0C10008FC050020DA
:102BD000B5460020C0460020B84600204FF0000255
:102BE0004FF00003C7E90623FEF764FA4FF47A704A
:102BF00007F035F85A20FFF79FFCA8494FF0000274
:102C00004FF00003C1E900230521A548FFF724F98F
:102C1000FFF7F6F85A20FFF74BFBA0494FF00002F0
:102C20004FF00003C1E900230A219D48FFF714F982
:102C30005A20FFF73DFB99494FF000024FF0000387
:102C4000C1E90023FFF7DCF823219548FFF704F9D9
:102C50006120FFF72DFB91494FF000024FF0000378
:102C6000C1E900235A20FFF723FB8C494FF00002F3
:102C70004FF00003C1E9002305218948FFF7ECF874
:102C8000FFF7BEF85A20FFF757FC84494FF00002C7
:102C90004FF00003C1E90023FFF706FE4FF00002EA
:102CA0004FF00003C7E90623FEF704FA4FF47A70E9
:102CB00006F0D5FF2D20FFF73FFC78494FF00002CA
:102CC0004FF00003C1E900230F217548FFF7C4F856
:102CD0002D20FFF7EDFA71494FF000024FF000038D
:102CE000C1E900232D20FFF7E3FA6C494FF0000201
:102CF0004FF00003C1E900230F216948FFF7ACF84A
:102D00002D20FFF719FC65494FF000024FF000033A
:102D1000C1E900234FF6FF7305226249624805F0BE
:102D2000E6FE624B01221A604FF47A7006F097FFBC
:102D3000FFF7BAFD00F041BC5C4B1B68002B45D18E
:102D40004FF000024FF00003C7E90623FEF7B2F987
:102D50004FF47A7006F083FF2D20FFF7A9FA4F4950
:102D60004FF000024FF00003C1E900230F214C484F
:102D7000FFF772F82D20FFF7DFFB48494FF0000204
:102D80004FF00003C1E900232D20FFF7D5FB434995
:102D90004FF000024FF00003C1E900230F2140482B
:102DA000FFF75AF82D20FFF783FA3C494FF0000255
:102DB0004FF00003C1E900233C4B01221A604FF49D
:102DC0007A7006F04CFFFFF76FFDF6E3374B1B6898
:102DD000012B40F0F1834FF000024FF00003C7E9F0
:102DE0000623FEF767F94FF47A7006F038FF5A2091
:102DF000FFF75EFA29494FF000024FF00003C1E9E6
:102E0000002319212648FFF727F8FEF7F9FF5A207B
:102E1000FFF792FB21494FF000024FF00003C1E998
:102E200000230A211E48FFF717F85A20FFF784FBFA
:102E30001A494FF000024FF00003C1E90023FEF7EA
:102E4000DFFF37211648FFF707F86120FFF730FA58
:102E500012494FF000024FF00003C1E90023FFF7D1
:102E600023FDA9E34FF000024FF00003C7E906235A
:102E7000FEF720F94FF47A7006F0F1FE5A20FFF7C2
:102E80005BFB06494FF000024FF00003C1E900234D
:102E90004FF47A70FFF780FC12E000BFB8460020C4
:102EA000B8C10008A0C10008FC050020C0460020F1
:102EB00001209FEDAD0BFEF777F8012006F0CFFE65
:102EC000B34B1B881846FDF725FB02460B464FF017
:102ED0000000B049FDF7C2FC02460B4610461946F9
:102EE000A3A3D3E90023FDF78FFB02460B46104650
:102EF0001946A1A3D3E90023FDF7CEF902460B46FC
:102F0000104619464FF00002A34BFDF7EFFD0346B4
:102F1000002BCDD1FEF774FF5A20FFF7C9F99F4966
:102F20004FF000024FF00003C1E900230A219C4842
:102F3000FEF792FF5A20FFF7BBF998494FF00002C5
:102F40004FF00003C1E900234FF47A70FFF724FC2F
:102F500002E0012006F083FE8D4B1B881846FDF72A
:102F6000D9FA02460B464FF000008A49FDF776FC7D
:102F700002460B46104619467DA3D3E90023FDF710
:102F800043FB02460B46104619467BA3D3E90023B8
:102F9000FDF782F902460B46104619464FF0000233
:102FA0007D4BFDF7A3FD0346002BD2D1FEF728FF92
:102FB0000A217B48FEF750FF6120FFF779F9774936
:102FC0004FF000024FF00003C1E900234FF6FF73FA
:102FD00005227449744805F08AFDEEE24FF00002C4
:102FE0004FF00003C7E90623FEF764F84FF47A7048
:102FF00006F035FE5A20FFF75BF94FF47A70FFF7C1
:10300000CBFB07E001209FED580BFDF7CDFF012022
:1030100006F025FE654B1B881846FDF77BFA024635
:103020000B464FF000005B49FDF718FC02460B46CB
:103030001046194652A3D3E90023FDF7E5FA0246EC
:103040000B461046194650A3D3E90023FDF724F997
:1030500002460B46104619464FF000024E4BFDF754
:1030600045FD0346002BCDD1FEF7CAFE5A20FFF7DF
:1030700063FA4A494FF000024FF00003C1E9002310
:103080000A214748FEF7E8FE5820FFF755FA434962
:103090004FF000024FF00003C1E900234FF47A70B3
:1030A000FFF77AFB07E001209FED2F0BFDF77CFF78
:1030B000012006F0D4FD3D4B1B881846FDF72AFA87
:1030C00002460B464FF000003249FDF7C7FB0246AF
:1030D0000B46104619462AA3D3E90023FDF794FABC
:1030E00002460B461046194627A3D3E90023FDF7F5
:1030F000D3F802460B46104619464FF00002264B05
:10310000FDF7F4FC0346002BCDD1FEF779FE0A2132
:103110002348FEF7A1FE5A20FFF70EFA1F494FF091
:1031200000024FF00003C1E900234FF6FF730522B0
:103130001C491D4805F0DBFC3FE24FF000024FF058
:103140000003C7E90623FDF7B5FF4FF47A7006F0D8
:1031500086FD1E211248FEF77FFE4FF47A70FFF7BE
:103160001BFB2DE0AFF3008000000000000000001A
:10317000000000006044E240A4703D0AD7232140D3
:1031800000000000406CE4408FC2F5285C0F244032
:103190007C2600200000F03F00004E40B846002092
:1031A000B8C10008A0C10008FC0500207C06002072
:1031B00001209FEDC10BFDF7F7FE012006F04FFD4A
:1031C000C74B1B881846FDF7A5F902460B464FF082
:1031D0000000C449FDF742FB02460B461046194663
:1031E000B7A3D3E90023FDF70FFA02460B461046BA
:1031F0001946B5A3D3E90023FDF74EF802460B4666
:10320000104619464FF00002B74BFDF78DFC034600
:10321000002BCDD1FEF7F4FDB14B1B881846FDF70E
:1032200079F902460B464FF00000AE49FDF716FB58
:1032300002460B4610461946A1A3D3E90023FDF729
:10324000E3F902460B46104619469FA3D3E9002333
:10325000FDF722F802460B46C7E902231921A348CD
:10326000FEF7FAFD5A20FFF723F8A1494FF00002BC
:103270004FF00003C1E90023D7E90201FDF75EFC2E
:1032800003461846FFF788FA5A20FFF755F9984980
:103290004FF000024FF00003C1E900234FF6FF7327
:1032A00005229449944805F022FC86E14FF0000283
:1032B0004FF00003C7E90623FDF7FCFE4FF47A70D8
:1032C00006F0CDFC1E218948FEF7C6FD4FF47A704A
:1032D000FFF762FA07E001209FED770BFDF764FE30
:1032E000012006F0BCFC854B1B881846FDF712F93F
:1032F00002460B464FF000007A49FDF7AFFA02464E
:103300000B461046194672A3D3E90023FDF77CF95A
:1033100002460B46104619466FA3D3E90023FCF77B
:10332000BBFF02460B46104619464FF000026E4B9B
:10333000FDF7FAFB0346002BCDD1FEF761FD6F4B85
:103340001B881846FDF7E6F802460B464FF00000D2
:103350006449FDF783FA02460B46104619465CA302
:10336000D3E90023FDF750F902460B4610461946F3
:1033700059A3D3E90023FCF78FFF02460B46C7E9A8
:10338000042314215948FEF767FD5A20FFF7D4F8AB
:1033900057494FF000024FF00003C1E90023D7E97D
:1033A0000401FDF7CBFB03461846FFF7F5F95C2057
:1033B000FEF77EFF4E494FF000024FF00003C1E9D7
:1033C00000234FF6FF7305224A494B4805F08FFB57
:1033D000F3E04FF000024FF00003C7E90623FDF7CA
:1033E00069FE4FF47A7006F03AFC454B1B681946AB
:1033F0003E48FEF7F1FD4FF6FF7305223D493E487A
:1034000005F075FBD9E04FF000024FF00003C7E96B
:103410000623FDF74FFE3A4B1B6819463948FEF765
:10342000DBFD4FF6FF7305223249334805F05FFBA1
:10343000C3E04FF000024FF00003C7E90623FDF799
:1034400039FE2F4B1B6819462F48FEF7C5FD4FF676
:10345000FF7305222749284805F049FBADE04FF0EE
:1034600000024FF00003C7E90623FDF723FE4FF4E7
:103470007A7006F0F4FB40F21450FFF78DF907E084
:1034800001209FED0D0BFDF78FFD012006F0E7FBFE
:103490001E4B1B78142BF3D8FEF7B2FC1C4B0022FA
:1034A0001A604FF6FF7305221249134805F01FFBFF
:1034B00083E000BFAFF300800000000000000000C8
:1034C000000000006044E240A4703D0AD723214080
:1034D00000000000406CE4408FC2F5285C0F2440DF
:1034E0007C2600200000F03F00004E40B8C10008DC
:1034F000B8460020A0C10008FC0500207C06002082
:1035000000000020A8C10008B0C10008B546002096
:10351000804600204FF000024FF00003C7E9062369
:10352000FDF7C8FD4FF47A7006F099FB3220FFF7E3
:1035300003F8012006F093FB0A212248FEF74CFD18
:10354000012006F08CFB2820FEF7F6FF4FF6FF73F4
:1035500005221D491D4805F0CAFA2EE04FF0000271
:103560004FF00003C7E90623FDF7A4FD4FF47A707E
:1035700006F075FB3220FEF79BFE012006F06FFB84
:103580000A211048FEF728FD012006F068FB2820DC
:10359000FEF78EFE4FF6FF7305220B490B4805F030
:1035A000A6FA0AE0FEF72CFC4FF6FF730522084945
:1035B000064805F09CFA00E000BF012006F04FFB32
:1035C000FFF7B4B9B8C10008A0C10008FC0500208D
:1035D000C4C1000880B588B000AF78603C212148A4
:1035E00004F0F4F80123FB611E4B1B685B6A3B612E
:1035F00000F046FE786100F043FE02467B69D31A74
:10360000642B2AD9174B1B685B6AFB60FB68B3F518
:10361000FA4F06DD0123FB61FB68C3F58033BB6114
:1036200004E04FF0FF33FB61FB68BB61FB69012BDA
:1036300006D10D4B1A68BB6913440B4A136005E0B1
:10364000094B1A68BB69D31A074A1360054B1B68FC
:1036500000225A6200F014FE7861012006F0FFFAA1
:10366000C9E700BFDC0400208446002080B586B096
:1036700000AF78603C21264804F0A8F8244B1B6872
:103680005B6A7B6100F0FCFD386100F0F9FD0246E9
:103690003B69D31AB3F57A7F36D91D4B1B685B6A39
:1036A000FB601B4B1B681B6803F01003102B12D12F
:1036B000FA687B699A4205DA7A69FB68D31A154A77
:1036C00013601AE0FB68C3F57F43FF337A69134444
:1036D000104A136011E0FA687B699A4205DDFA68C6
:1036E0007B69D31A0B4A136007E07B69C3F57F43FC
:1036F000FF33FA681344074A1360054B1B685B6A83
:103700007B6100F0BDFD3861012006F0A8FABCE73E
:10371000240500207C46002080B582B000AF786090
:10372000034B1B68002BFBD1FEF76AFBF8E700BFD9
:103730008046002080B582B000AF7860C82006F0D7
:103740008EFAFBE780B582B000AF786000210548B3
:1037500003F056FD0421034803F052FD012006F05A
:103760007EFAFBE7B405002080B594B000AF786026
:10377000274A07F1080392E8030018600433198010
:1037800002330A0C1A7007F10F033F22002118467A
:1037900007F032FF1F4BD3E9002310461946FDF70F
:1037A000CDF9024607F108031B49184607F02CFF24
:1037B00007F108031A460A210A2007F023FE174BD7
:1037C0001B781A4607F108031549184607F01CFF35
:1037D00007F108031A4614210A2007F013FE114BC3
:1037E0001B881A46104B1B8807F108000F4907F089
:1037F0000BFF07F108031A461E210A2007F002FEFC
:1038000007F08CFC4FF4FA7006F029FAB0E700BF1D
:10381000F0C10008B8460020C8C10008B546002025
:10382000D4C100087C0600207C260020E4C10008EA
:1038300080B582B000AF78604FF47A7006F00FFA6E
:10384000FAE7000000000000B0B58CB000AF78606F
:1038500000233B8400237B840023FB62FDF72AFCCA
:1038600000237B8500F00CFDF8620A2006F0F7F9D2
:1038700000237B6216E007F1200319463720FDF78D
:1038800041FB97F820301B021AB297F821301BB287
:1038900013437B847A8D7B8C13449BB27B857B6A3C
:1038A00001337B627B6A40F6B7329342E3DDB7F9BE
:1038B0002A3007EE903AB8EEE77ADFED416AC7EEBC
:1038C000267AFDEEE77A17EE903A7B850A2006F01D
:1038D000C6F900F0D5FC0246FB6AD31A632BF5D972
:1038E00007F1200319463720FDF70CFB97F820302D
:1038F0001B021AB297F821301BB213437B84B7F92D
:1039000022301846FCF716FE29A3D3E90023FCF762
:10391000C3FC02460B4614461D4600F0B1FC0246AD
:10392000FB6AD31A1846FCF7F5FD23A3D3E900235D
:10393000FCF794FF02460B4620462946FCF764FE3E
:1039400002460B46104619461E4BD3E90023FCF7EE
:10395000A5FC02460B461B49C1E90023194BD3E9DC
:1039600000014FF00002184BFDF7D4F80346002B7E
:1039700006D014494FF000024FF00003C1E90023C4
:10398000104BD3E900014FF00002104BFDF7B8F8DF
:103990000346002B06D00B494FF000024FF0000306
:1039A000C1E9002300F06CFCF8628FE7AFF3008000
:1039B000CDCCCCCCCCCCFC3F000000000004D040EF
:1039C00000803B45B846002000808640008086C0CD
:1039D00080B400AF72B600BFFEE7000080B582B0D1
:1039E00000AF00237B60124B5B6C114A43F48043B1
:1039F00053640F4B5B6C03F480437B607B68002354
:103A00003B600B4B1B6C0A4A43F080531364084B1A
:103A10001B6C03F080533B603B6800220F216FF06A
:103A2000010001F04AF900BF0837BD4680BD00BF64
:103A30000038024080B58CB000AF786007F11C03FD
:103A400000221A605A609A60DA601A617B681B680B
:103A50005E4A934258D10023BB615D4B5B6C5C4A6C
:103A600043F4807353645A4B5B6C03F48073BB6103
:103A7000BB6900237B61564B1B6B554A43F0040323
:103A80001363534B1B6B03F004037B617B690223BD
:103A9000FB6103233B6200237B6207F11C03194691
:103AA0004C4801F043FD4C4B4C4A1A604A4B0022F3
:103AB0005A60494B00229A60474B0022DA60464B1D
:103AC0004FF480621A61444B4FF400625A61424BDA
:103AD0004FF400529A61404B4FF48072DA613E4BD2
:103AE00000221A623C4B00225A623B4801F01CF94A
:103AF0000346002B01D0FFF76BFF7B68364A9A63C1
:103B0000354A7B6893635DE07B681B68344A934267
:103B100058D100233B612E4B5B6C2D4A43F400735C
:103B200053642B4B5B6C03F400733B613B690023D4
:103B3000FB60274B1B6B264A43F004031363244BA3
:103B40001B6B03F00403FB60FB680423FB6103238E
:103B50003B6200237B6207F11C0319461D4801F0FC
:103B6000E5FC204B204A1A601E4B4FF000725A6051
:103B70001C4B00229A601B4B0022DA60194B4FF459
:103B800080621A61174B4FF400625A61154B4FF473
:103B900000529A61134B4FF48072DA61114B00228C
:103BA0001A62104B00225A620E4801F0BDF803461B
:103BB000002B01D0FFF70CFF7B680A4A9A63094A81
:103BC0007B68936300BF3037BD4680BD0020014055
:103BD00000380240000802408003002010640240C8
:103BE00000210140E00300204064024080B58AB01B
:103BF00000AF786007F1140300221A605A609A60DF
:103C0000DA601A617B681B68194A93422CD1002341
:103C10003B61184B1B6B174A43F002031363154BB0
:103C20001B6B03F002033B613B694FF440737B6104
:103C30001223BB610023FB6103233B6204237B62ED
:103C400007F1140319460C4801F070FC0023FB60D7
:103C5000084B1B6C074A43F400131364054B1B6CA1
:103C600003F40013FB60FB6800BF2837BD4680BD2E
:103C700000540040003802400004024080B485B087
:103C800000AF78607B681B680B4A93420DD100231C
:103C9000FB600A4B5B6C094A43F001035364074B1A
:103CA0005B6C03F00103FB60FB6800BF1437BD468B
:103CB0005DF8047B704700BF0000014000380240FF
:103CC00080B58CB000AF786007F11C0300221A6049
:103CD0005A609A60DA601A617B681B68B3F1804FA2
:103CE0004BD10023BB613F4B1B6C3E4A43F00103A9
:103CF00013643C4B1B6C03F00103BB61BB690023E5
:103D00007B61384B1B6B374A43F001031363354B20
:103D10001B6B03F001037B617B6900233B61314B2B
:103D20001B6B304A43F0020313632E4B1B6B03F0F3
:103D300002033B613B694FF40043FB6102233B629A
:103D400000237B620323BB620123FB6207F11C0398
:103D50001946254801F0EAFB0823FB6102233B6278
:103D600000237B620323BB620123FB6207F11C0378
:103D700019461E4801F0DAFB30E07B681B681C4ADC
:103D800093422BD10023FB60164B1B6C154A43F06A
:103D900002031364134B1B6C03F00203FB60FB680C
:103DA0000023BB600F4B1B6B0E4A43F001031363F0
:103DB0000C4B1B6B03F00103BB60BB68C023FB61B2
:103DC00002233B6200237B620323BB620223FB626C
:103DD00007F11C031946044801F0A8FB00BF303767
:103DE000BD4680BD00380240000002400004024091
:103DF0000004004080B58AB000AF786007F114037A
:103E000000221A605A609A60DA601A617B681B6847
:103E10001D4A934234D100233B611C4B1B6C1B4A4F
:103E200043F004031364194B1B6C03F004033B6160
:103E30003B690023FB60154B1B6B144A43F00803DE
:103E40001363124B1B6B03F00803FB60FB684FF41A
:103E500080537B610223BB610023FB6100233B6233
:103E600002237B6207F114031946094801F05EFB47
:103E7000002205211E2000F020FF1E2000F039FF47
:103E800000BF2837BD4680BD000800400038024012
:103E9000000C024080B58AB000AF786007F11403CF
:103EA00000221A605A609A60DA601A617B681B68A7
:103EB000194A93422BD100233B61184B5B6C174A84
:103EC00043F002035364154B5B6C03F002033B6148
:103ED0003B690023FB60114B1B6B104A43F004034A
:103EE00013630E4B1B6B03F00403FB60FB68C023E2
:103EF0007B610223BB610023FB6100233B62032340
:103F00007B6207F114031946054801F00FFB00BF5F
:103F10002837BD4680BD00BF000401400038024084
:103F20000008024080B588B000AF786007F10C034C
:103F300000221A605A609A60DA601A617B681B6816
:103F4000124A93421ED10023BB60114B1B6B104AD7
:103F500043F0100313630E4B1B6B03F01003BB60A5
:103F6000BB684FF48043FB6002233B6100237B610D
:103F70000323BB610123FB6107F10C0319460548CC
:103F800001F0D4FA00BF2037BD4680BD00000140DB
:103F9000003802400010024080B58AB000AF78605F
:103FA00007F1140300221A605A609A60DA601A61FD
:103FB0007B681B681D4A934234D100233B611C4B34
:103FC0001B6C1B4A43F480231364194B1B6C03F4D2
:103FD00080233B613B690023FB60154B1B6B144A3C
:103FE00043F004031363124B1B6B03F00403FB60E9
:103FF000FB684FF440637B610223BB610023FB61DC
:1040000003233B6207237B6207F114031946094827
:1040100001F08CFA00220521272000F04EFE272017
:1040200000F067FE00BF2837BD4680BD0048004055
:10403000003802400008024080B400AFFEE780B4C0
:1040400000AFFEE780B400AFFEE780B400AFFEE74C
:1040500080B400AFFEE780B400AF00BFBD465DF89E
:10406000047B704780B500AF00F0F6F806F09CFBCB
:104070000346012B01D006F0D7FD00BF80BD000034
:1040800080B500AF024803F02FFC00BF80BD00BF29
:104090006C05002080B500AF024804F0EBFD00BFC6
:1040A00080BD00BFFC05002080B500AF024800F0D5
:1040B000D3FF00BF80BD00BF8003002080B500AFEC
:1040C000024800F0C9FF00BF80BD00BFE003002030
:1040D00080B586B000AF7860144A154BD31A7B6167
:1040E0007B693B61134B1B68002B02D1114B124AB9
:1040F0001A60104B1A687B6813443A699A4207D2D7
:1041000007F042FA03460C221A604FF0FF3309E031
:10411000084B1B68FB60074B1A687B681344054A11
:104120001360FB6818461837BD4680BD00000220AA
:1041300000040000C44600203088002080B400AF96
:10414000064BD3F88830054A43F47003C2F8883030
:1041500000BFBD465DF8047B704700BF00ED00E086
:10416000DFF834D00D480E490E4A002302E0D4583F
:10417000C4500433C4188C42F9D30B4A0B4C0023AF
:1041800001E013600432A242FBD3FFF7D7FF07F030
:1041900001FAFCF7D3FF7047000002200000002066
:1041A0008000002008CE0008800000203088002019
:1041B000FEE7000080B500AF0E4B1B680D4A43F4CC
:1041C000007313600B4B1B680A4A43F4806313604F
:1041D000084B1B68074A43F480731360032000F008
:1041E00061FD0F2000F008F8FFF7F8FB00231846E8
:1041F00080BD00BF003C024080B582B000AF786057
:10420000124B1A68124B1B7819464FF47A73B3FBA2
:10421000F1F3B2FBF3F3184600F079FD0346002BEF
:1042200001D001230EE07B680F2B0AD800227968A9
:104230004FF0FF3000F041FD064A7B681360002319
:1042400000E0012318460837BD4680BD0C00002061
:10425000140000201000002080B400AF064B1B7833
:104260001A46064B1B681344044A136000BFBD4640
:104270005DF8047B704700BF14000020C846002092
:1042800080B400AF034B1B681846BD465DF8047B45
:10429000704700BFC846002080B584B000AF78608A
:1042A000FFF7EEFFB8607B68FB60FB68B3F1FF3F90
:1042B00005D00A4B1B781A46FB681344FB6000BF0D
:1042C000FFF7DEFF0246BB68D31AFA689A42F7D8B6
:1042D00000BF00BF1037BD4680BD00BF14000020E6
:1042E00080B584B000AF78600023FB737B68002B3F
:1042F00001D1012333E07B681B6C002B09D1786866
:10430000FFF798FB7B6800225A647B68002283F8E1
:104310003C207B681B6C03F01003002B18D17B68DA
:104320001B6C23F4885323F0020343F002027B68E2
:104330001A64786800F068FA7B6800225A647B6827
:104340001B6C23F0030343F001027B681A6401E055
:104350000123FB737B68002283F83C20FB7B18461B
:104360001037BD4680BD000080B586B000AFF86054
:10437000B9607A6000233B61FB6893F83C30012B05
:1043800001D10223E9E0FB68012283F83C20FB68AD
:104390001B689B6803F00103012B18D0FB681B68A6
:1043A0009A68FB681B6842F001029A606D4B1B68BB
:1043B0006D4AA2FB03239A0C13465B0013443B6136
:1043C00002E03B69013B3B613B69002BF9D1FB6893
:1043D0001B689B6803F48073B3F5807F07D1FB688B
:1043E0001B689A68FB681B6822F480729A60FB68FD
:1043F0001B689B6803F00103012B40F0A180FB6860
:104400001B6C23F4E06323F0010343F48072FB6828
:104410001A64FB681B685B6803F48063002B07D099
:10442000FB681B6C23F4405343F48052FB681A640E
:10443000FB681B6C03F48053B3F5805F06D1FB6807
:104440005B6C23F00602FB685A6402E0FB68002202
:104450005A64FB68002283F83C20444B7B61FB6874
:104460009B6B434ADA63FB689B6B424A1A64FB68A6
:104470009B6B414ADA64FB681B686FF022021A608A
:10448000FB681B685A68FB681B6842F080625A60D0
:10449000FB681B689A68FB681B6842F480729A602C
:1044A000FB68986BFB681B684C331946BA687B68DD
:1044B00000F0E8FC7B695B6803F01F03002B2AD146
:1044C000FB681B682D4A934215D0FB681B682C4A79
:1044D000934205D1254B5B6803F01F03002B0AD0E4
:1044E000FB681B68274A934236D1204B5B6803F078
:1044F0001003002B30D1FB681B689B6803F040530E
:10450000002B29D1FB681B689A68FB681B6842F086
:1045100080429A6020E0FB681B68184A93421BD1D6
:10452000FB681B689B6803F04053002B14D1FB68A9
:104530001B689A68FB681B6842F080429A600BE037
:10454000FB681B6C43F01002FB681A64FB685B6C31
:1045500043F00102FB685A64002318461837BD4631
:1045600080BD00BF0C00002083DE1B430023014000
:10457000014A0008BB4A0008D74A00080020014051
:10458000002101400022014080B483B000AF786078
:1045900000BF0C37BD465DF8047B704780B483B024
:1045A00000AF786000BF0C37BD465DF8047B7047F4
:1045B00080B483B000AF786000BF0C37BD465DF8B3
:1045C000047B704780B485B000AF78603960002309
:1045D000BB607B6893F83C30012B01D1022305E1DD
:1045E0007B68012283F83C203B681B68092B25D996
:1045F0007B681B68D9683B681B689BB21A461346E8
:104600005B0013441E3B072202FA03F3DA437B6884
:104610001B680A40DA607B681B68D9683B689A6847
:104620003B681B689BB2184603465B0003441E3B75
:104630009A407B681B680A43DA6022E07B681B684B
:1046400019693B681B689BB21A4613465B0013440A
:10465000072202FA03F3DA437B681B680A401A61F7
:104660007B681B6819693B689A683B681B689BB24A
:10467000184603465B0003449A407B681B680A4364
:104680001A613B685B68062B24D87B681B68596BF2
:104690003B685A6813469B001344053B1F2202FAED
:1046A00003F3DA437B681B680A405A637B681B6824
:1046B000596B3B681B689BB218463B685A681346A7
:1046C0009B001344053B00FA03F27B681B680A4316
:1046D0005A634CE03B685B680C2B24D87B681B68F2
:1046E000196B3B685A6813469B001344233B1F22F7
:1046F00002FA03F3DA437B681B680A401A637B689B
:104700001B68196B3B681B689BB218463B685A686C
:1047100013469B001344233B00FA03F27B681B689B
:104720000A431A6323E07B681B68D96A3B685A68AE
:1047300013469B001344413B1F2202FA03F3DA4362
:104740007B681B680A40DA627B681B68D96A3B6831
:104750001B689BB218463B685A6813469B0013447B
:10476000413B00FA03F27B681B680A43DA62224B82
:10477000FB607B681B68214A934209D13B681B6838
:10478000122B05D1FB685B6843F48002FB685A601A
:104790007B681B68194A934223D13B681B68102B26
:1047A00003D03B681B68112B1BD1FB685B6843F48B
:1047B0000002FB685A603B681B68102B11D1104B3C
:1047C0001B68104AA2FB03239A0C13469B00134458
:1047D0005B00BB6002E0BB68013BBB60BB68002BB9
:1047E000F9D17B68002283F83C2000231846143757
:1047F000BD465DF8047B7047002301400020014066
:104800000C00002083DE1B4380B485B000AF7860CD
:10481000794BFB60FB685B6823F44032FB685A60AD
:10482000FB685A687B685B681A43FB685A607B6860
:104830001B685A687B681B6822F480725A607B6828
:104840001B6859687B681B691A027B681B680A43EE
:104850005A607B681B685A687B681B6822F040724C
:104860005A607B681B6859687B689A687B681B681C
:104870000A435A607B681B689A687B681B6822F44D
:1048800000629A607B681B6899687B68DA687B685D
:104890001B680A439A607B689B6A584A934222D0FD
:1048A0007B681B689A687B681B6822F070629A605C
:1048B0007B681B6899687B689A6A7B681B680A43F7
:1048C0009A607B681B689A687B681B6822F040527C
:1048D0009A607B681B6899687B68DA6A7B681B68EA
:1048E0000A439A600FE07B681B689A687B681B68C4
:1048F00022F070629A607B681B689A687B681B680C
:1049000022F040529A607B681B689A687B681B683B
:1049100022F002029A607B681B6899687B681B7EA4
:104920005A007B681B680A439A607B6893F82030C2
:10493000002B1BD07B681B685A687B681B6842F49D
:1049400000625A607B681B685A687B681B6822F4A7
:1049500060425A607B681B6859687B685B6A013BF0
:104960005A037B681B680A435A6007E07B681B6830
:104970005A687B681B6822F400625A607B681B6877
:10498000DA6A7B681B6822F47002DA627B681B6853
:10499000D96A7B68DB69013B1A057B681B680A439F
:1049A000DA627B681B689A687B681B6822F4007275
:1049B0009A607B681B6899687B6893F830305A026C
:1049C0007B681B680A439A607B681B689A687B68EF
:1049D0001B6822F480629A607B681B6899687B6818
:1049E0005B699A027B681B680A439A6000BF1437B0
:1049F000BD465DF8047B7047002301400100000FB5
:104A000080B584B000AF78607B689B6BFB60FB680F
:104A10001B6C03F05003002B3CD1FB681B6C43F470
:104A20000072FB681A64FB681B689B6803F04053C4
:104A3000002B2BD1FB681B7E002B27D1FB681B684A
:104A4000DB6A03F47003002B06D0FB681B689B68CD
:104A500003F48063002B19D1FB681B685A68FB685C
:104A60001B6822F020025A60FB681B6C23F48072E2
:104A7000FB681A64FB681B6C03F48053002B05D1A0
:104A8000FB681B6C43F00102FB681A64F868FFF7CF
:104A90007BFD0EE0FB681B6C03F01003002B03D0C2
:104AA000F868FFF785FD04E0FB689B6BDB6C7868BA
:104AB000984700BF1037BD4680BD80B584B000AFB9
:104AC00078607B689B6BFB60F868FFF767FD00BF51
:104AD0001037BD4680BD80B584B000AF78607B687C
:104AE0009B6BFB60FB6840221A64FB685B6C43F0C5
:104AF0000402FB685A64F868FFF75AFD00BF1037DC
:104B0000BD4680BD80B485B000AF78607B6803F09F
:104B10000703FB600C4BDB68BB60BA684FF6FF0312
:104B20001340BB60FB681A02BB68134343F0BF63CA
:104B300043F40033BB60044ABB68D36000BF143742
:104B4000BD465DF8047B704700ED00E080B400AF27
:104B5000044BDB681B0A03F007031846BD465DF8EB
:104B6000047B704700ED00E080B483B000AF0346E3
:104B7000FB7197F90730002B0BDBFB7903F01F0269
:104B8000074997F907305B09012000FA02F241F862
:104B9000232000BF0C37BD465DF8047B704700BF83
:104BA00000E100E080B483B000AF03463960FB71E0
:104BB00097F90730002B0ADB3B68DAB20C4997F90A
:104BC00007301201D2B20B4483F800230AE03B689D
:104BD000DAB20849FB7903F00F03043B1201D2B2A9
:104BE0000B441A7600BF0C37BD465DF8047B704756
:104BF00000E100E000ED00E080B489B000AFF860B3
:104C0000B9607A60FB6803F00703FB61FB69C3F1DD
:104C10000703042B28BF0423BB61FB690433062B65
:104C200002D9FB69033B00E000237B614FF0FF32B8
:104C3000BB6902FA03F3DA43BB681A407B699A4006
:104C40004FF0FF317B6901FA03F3D9437B680B40D6
:104C5000134318462437BD465DF8047B70470000B7
:104C600080B582B000AF78607B68013BB3F1807F94
:104C700001D301230FE00A4A7B68013B53600F21F7
:104C80004FF0FF30FFF78EFF054B00229A60044B78
:104C900007221A60002318460837BD4680BD00BFB2
:104CA00010E000E080B582B000AF78607868FFF770
:104CB00029FF00BF0837BD4680BD80B586B000AF74
:104CC0000346B9607A60FB7300237B61FFF73EFF08
:104CD00078617A68B9687869FFF78EFF024697F9BC
:104CE0000F3011461846FFF75DFF00BF1837BD466D
:104CF00080BD80B582B000AF0346FB7197F90730E5
:104D00001846FFF731FF00BF0837BD4680BD80B5AC
:104D100082B000AF78607868FFF7A2FF03461846BC
:104D20000837BD4680BD000080B586B000AF786012
:104D300000237B61FFF7A4FA38617B68002B01D167
:104D4000012399E07B68022283F835207B680022EA
:104D500083F834207B681B681A687B681B6822F024
:104D600001021A600FE0FFF78BFA02463B69D31A83
:104D7000052B08D97B6820225A657B68032283F8BB
:104D80003520032378E07B681B681B6803F0010370
:104D9000002BE8D17B681B681B687B617A69384B04
:104DA00013407B617B685A687B689B681A437B6809
:104DB000DB681A437B681B691A437B685B691A438B
:104DC0007B689B691A437B68DB691A437B681B6AB3
:104DD00013437A6913437B617B685B6A042B07D1B9
:104DE0007B68DA6A7B681B6B13437A6913437B61C8
:104DF0007B681B687A691A607B681B685B697B61EA
:104E00007B6923F007037B617B685B6A7A691343E4
:104E10007B617B685B6A042B17D17B689B6A7A692C
:104E200013437B617B68DB6A002B0ED0786800F04F
:104E300001FB0346002B08D07B6840225A657B6843
:104E4000012283F83520012316E07B681B687A690C
:104E50005A61786800F0B8FA0346FB607B68DB6D46
:104E60003F229A40FB689A607B6800225A657B6803
:104E7000012283F83520002318461837BD4680BD2F
:104E80003F8010F080B586B000AFF860B9607A60FE
:104E90003B600023FB75FB689B6D3B61FB6893F8EF
:104EA0003430012B01D1022340E0FB68012283F85A
:104EB0003420FB6893F83530DBB2012B2FD1FB682F
:104EC000022283F83520FB6800225A653B687A6825
:104ED000B968F86800F04AFAFB68DB6D3F229A4037
:104EE0003B699A60FB681B681A68FB681B6842F0A4
:104EF00016021A60FB681B6C002B07D0FB681B684E
:104F00001A68FB681B6842F008021A60FB681B689D
:104F10001A68FB681B6842F001021A6005E0FB6832
:104F2000002283F834200223FB75FB7D18461837D6
:104F3000BD4680BD80B584B000AF78607B689B6D56
:104F4000FB60FFF79DF9B8607B6893F83530DBB202
:104F5000022B08D07B6880225A657B68002283F888
:104F60003420012352E07B681B681A687B681B6849
:104F700022F016021A607B681B685A697B681B68FE
:104F800022F080025A617B681B6C002B03D17B6886
:104F90009B6C002B07D07B681B681A687B681B68BA
:104FA00022F008021A607B681B681A687B681B681D
:104FB00022F001021A6013E0FFF762F90246BB68B3
:104FC000D31A052B0CD97B6820225A657B680322F3
:104FD00083F835207B68002283F83420032315E012
:104FE0007B681B681B6803F00103002BE4D17B681E
:104FF000DB6D3F229A40FB689A607B68012283F850
:1050000035207B68002283F83420002318461037AF
:10501000BD4680BD80B483B000AF78607B6893F8F4
:105020003530DBB2022B04D07B6880225A65012325
:105030000CE07B68052283F835207B681B681A68C2
:105040007B681B6822F001021A60002318460C37A7
:10505000BD465DF8047B704780B586B000AF7860D0
:105060000023BB608E4B1B688E4AA2FB03239B0A66
:105070007B617B689B6D3B613B691B68FB607B6868
:10508000DB6D08229A40FB681340002B1AD07B6826
:105090001B681B6803F00403002B13D07B681B689C
:1050A0001A687B681B6822F004021A607B68DB6D5B
:1050B00008229A403B699A607B685B6D43F001026D
:1050C0007B685A657B68DB6D01229A40FB68134060
:1050D000002B12D07B681B685B6903F08003002BF8
:1050E0000BD07B68DB6D01229A403B699A607B683C
:1050F0005B6D43F002027B685A657B68DB6D0422BE
:105100009A40FB681340002B12D07B681B681B6819
:1051100003F00203002B0BD07B68DB6D04229A4066
:105120003B699A607B685B6D43F004027B685A655B
:105130007B68DB6D10229A40FB681340002B43D044
:105140007B681B681B6803F00803002B3CD07B685E
:10515000DB6D10229A403B699A607B681B681B6874
:1051600003F48023002B18D07B681B681B6803F4B2
:105170000023002B08D17B681B6C002B24D07B689C
:105180001B6C786898471FE07B689B6C002B1BD0DA
:105190007B689B6C7868984716E07B681B681B6887
:1051A00003F48073002B07D17B681B681A687B6847
:1051B0001B6822F008021A607B681B6C002B03D06E
:1051C0007B681B6C786898477B68DB6D20229A406F
:1051D000FB681340002B00F08F807B681B681B6806
:1051E00003F01003002B00F087807B68DB6D20222A
:1051F0009A403B699A607B6893F83530DBB2052BA7
:1052000036D17B681B681A687B681B6822F016021F
:105210001A607B681B685A697B681B6822F08002F1
:105220005A617B681B6C002B03D17B689B6C002B45
:1052300007D07B681B681A687B681B6822F008022D
:105240001A607B68DB6D3F229A403B699A607B68FD
:10525000012283F835207B68002283F834207B68A4
:105260001B6D002B7ED07B681B6D7868984779E0BA
:105270007B681B681B6803F48023002B1DD07B68B0
:105280001B681B6803F40023002B0DD17B685B6C4B
:10529000002B31D07B685B6C786898472CE000BFAE
:1052A0000C000020B5814E1B7B68DB6B002B23D0EC
:1052B0007B68DB6B786898471EE07B681B681B681F
:1052C00003F48073002B0FD17B681B681A687B681E
:1052D0001B6822F010021A607B68012283F83520D7
:1052E0007B68002283F834207B68DB6B002B03D0C3
:1052F0007B68DB6B786898477B685B6D002B32D0EE
:105300007B685B6D03F00103002B22D07B680522D4
:1053100083F835207B681B681A687B681B6822F05D
:1053200001021A60BB680133BB607A699A4207D3F5
:105330007B681B681B6803F00103002BF2D100E0BF
:1053400000BF7B68012283F835207B68002283F848
:1053500034207B68DB6C002B05D07B68DB6C7868C5
:10536000984700E000BF1837BD4680BD80B485B0C7
:1053700000AFF860B9607A603B60FB681B681A6830
:10538000FB681B6822F480221A60FB681B683A687D
:105390005A60FB689B68402B08D1FB681B687A68E1
:1053A0009A60FB681B68BA68DA6007E0FB681B68F4
:1053B000BA689A60FB681B687A68DA6000BF1437C5
:1053C000BD465DF8047B704780B485B000AF78605F
:1053D0007B681B68DBB2103B144AA2FB03231B094A
:1053E000FB60134AFB6813441B781A467B68DA6536
:1053F000FB68032B09D97B681B6823F47F7323F0B8
:1054000003031A1D7B689A6507E07B681B6823F419
:105410007F7323F003037A6893657B689B6D18465E
:105420001437BD465DF8047B704700BFABAAAAAA3B
:1054300058C2000880B485B000AF78600023FB73C9
:105440007B689B6ABB607B689B69002B1FD1BB6834
:10545000032B56D801A252F823F000BF6D54000868
:105460007F5400086D540008035500087B68DB6A10
:1054700003F08073002B46D00123FB7343E07B686D
:10548000DB6AB3F1C07F40D10123FB733DE07B6851
:105490009B69B3F5005F21D1BB68032B37D801A20C
:1054A00052F823F0B5540008BB540008B554000866
:1054B000CD5400080123FB7330E07B68DB6A03F006
:1054C0008073002B25D00123FB7322E07B68DB6A0D
:1054D000B3F1C07F1FD10123FB731CE0BB68022B1B
:1054E00003D9BB68032B03D018E00123FB7315E03D
:1054F0007B68DB6A03F08073002B0ED00123FB7303
:105500000BE000BF0AE000BF08E000BF06E000BFFC
:1055100004E000BF02E000BF00E000BFFB7B1846D4
:105520001437BD465DF8047B704700BF80B489B076
:1055300000AF7860396000237B6100233B6100236A
:10554000BB610023FB616BE10122FB6902FA03F3FB
:105550007B613B681B687A6913403B613A697B69F0
:105560009A4240F05A813B685B6803F00303012BC9
:1055700005D03B685B6803F00303022B30D17B68E6
:105580009B68BB61FB695B00032202FA03F3DB4308
:10559000BA691340BB613B68DA68FB695B0002FAD9
:1055A00003F3BA691343BB617B68BA699A607B688D
:1055B0005B68BB610122FB6902FA03F3DB43BA6952
:1055C0001340BB613B685B681B0903F00102FB6988
:1055D00002FA03F3BA691343BB617B68BA695A6084
:1055E0003B685B6803F00303032B17D07B68DB6821
:1055F000BB61FB695B00032202FA03F3DB43BA6978
:105600001340BB613B689A68FB695B0002FA03F3D5
:10561000BA691343BB617B68BA69DA603B685B684F
:1056200003F00303022B23D1FB69DA087B680832FD
:1056300053F82230BB61FB6903F007039B000F2284
:1056400002FA03F3DB43BA691340BB613B681A6992
:10565000FB6903F007039B0002FA03F3BA691343E3
:10566000BB61FB69DA087B680832B96943F822102C
:105670007B681B68BB61FB695B00032202FA03F3D2
:10568000DB43BA691340BB613B685B6803F003020C
:10569000FB695B0002FA03F3BA691343BB617B68E1
:1056A000BA691A603B685B6803F44033002B00F072
:1056B000B4800023FB60604B5B6C5F4A43F4804323
:1056C00053645D4B5B6C03F48043FB60FB685B4A97
:1056D000FB699B08023352F82330BB61FB6903F07E
:1056E00003039B000F2202FA03F3DB43BA69134062
:1056F000BB617B68524A93422BD07B68514A9342EC
:1057000025D07B68504A93421FD07B684F4A934212
:1057100019D07B684E4A934213D07B684D4A93421E
:105720000DD07B684C4A934207D07B684B4A93422A
:1057300001D107230EE008230CE006230AE005232D
:1057400008E0042306E0032304E0022302E001232F
:1057500000E00023FA6902F0030292009340BA6964
:105760001343BB613549FB699B080233BA6941F8B1
:1057700023203B4B9B68BB613B69DB43BA69134009
:10578000BB613B685B6803F48013002B03D0BA69EC
:105790003B691343BB61324ABB699360304BDB68A2
:1057A000BB613B69DB43BA691340BB613B685B6823
:1057B00003F40013002B03D0BA693B691343BB61A8
:1057C000274ABB69D360264B5B68BB613B69DB43FF
:1057D000BA691340BB613B685B6803F40033002B7C
:1057E00003D0BA693B691343BB611D4ABB6953606F
:1057F0001B4B1B68BB613B69DB43BA691340BB6150
:105800003B685B6803F48033002B03D0BA693B69C3
:105810001343BB61124ABB691360FB690133FB612F
:10582000FB690F2B7FF690AE00BF00BF2437BD464B
:105830005DF8047B704700BF00380240003801402B
:10584000000002400004024000080240000C024038
:10585000001002400014024000180240001C0240E8
:10586000003C014080B483B000AF78600B467B8081
:1058700013467B707B78002B03D07A887B689A6113
:1058800003E07B881A047B689A6100BF0C37BD4631
:105890005DF8047B7047000080B584B000AF78608D
:1058A0007B68002B01D101232BE17B6893F83D300D
:1058B000DBB2002B06D17B68002283F83C2078689D
:1058C000FEF794F97B68242283F83D207B681B68EF
:1058D0001A687B681B6822F001021A607B681B68EB
:1058E0001A687B681B6842F400421A607B681B6878
:1058F0001A687B681B6822F400421A6001F0BAFB48
:10590000F8607B685B68814A934207D8FB68804AED
:10591000934294BF01230023DBB206E0FB687D4A7B
:10592000934294BF01230023DBB2002B01D001235B
:10593000E7E0FB68784AA2FB03239B0CBB607B6813
:105940001B685B6823F03F017B681B68BA680A43E9
:105950005A607B681B681B6A23F03F017B685B68A9
:105960006A4A934202D8BB68013309E0BB684FF42E
:10597000967202FB03F3694AA2FB03239B090133DE
:105980007A6812680B4313627B681B68DB6923F437
:105990004F4222F0FF027B685B685C498B4219D85A
:1059A000FB68591E7B685B685B00B1FBF3F3591C15
:1059B00040F6FC730B40002B0AD0FB68591E7B6835
:1059C0005B685B00B1FBF3F30133C3F30B0351E0FE
:1059D00004234FE07B689B68002B11D1FB68581EA5
:1059E0007B6859680B465B000B44B0FBF3F3013353
:1059F000C3F30B03002B0CBF01230023DBB212E027
:105A0000FB68581E7B6859680B469B000B44990045
:105A10000B44B0FBF3F30133C3F30B03002B0CBFB8
:105A200001230023DBB2002B01D0012322E07B689D
:105A30009B68002B0ED1FB68581E7B6859680B468B
:105A40005B000B44B0FBF3F30133C3F30B0343F4EC
:105A500000430FE0FB68581E7B6859680B469B00AB
:105A60000B4499000B44B0FBF3F30133C3F30B0376
:105A700043F44043796809681343CB617B681B6832
:105A80001B6823F0C0017B68DA697B681B6A1A43D4
:105A90007B681B680A431A607B681B689B6823F459
:105AA000034323F0FF037A6811697A68D2681143CF
:105AB0007A6812680B4393607B681B68DB6823F08D
:105AC000FF017B685A697B689B691A437B681B6886
:105AD0000A43DA607B681B681A687B681B6842F0BF
