:020000040800F2
:1000000000000220552C0008AD2B0008AF2B000883
:10001000B12B0008B32B0008B52B0008000000002E
:100020000000000000000000000000003161000836
:10003000B72B000800000000C1610008B92B0008C0
:10004000A52C0008A52C0008A52C0008A52C00084C
:10005000A52C0008A52C0008A52C0008A52C00083C
:10006000A52C0008A52C0008A52C0008A52C00082C
:10007000A52C0008A52C0008A52C0008A52C00081C
:10008000A52C0008A52C0008A52C0008A52C00080C
:10009000A52C0008A52C0008A52C0008A52C0008FC
:1000A000A52C0008A52C0008A52C0008A52C0008EC
:1000B000A52C0008A52C0008D12B0008A52C0008B1
:1000C000A52C0008A52C0008A52C0008A52C0008CC
:1000D000A52C0008A52C0008A52C0008DD2B000885
:1000E000A52C0008A52C0008A52C0008A52C0008AC
:1000F000A52C0008A52C0008A52C0008A52C00089C
:10010000A52C0008A52C0008A52C0008A52C00088B
:10011000A52C0008A52C0008A52C0008A52C00087B
:10012000E92B0008A52C0008F52B0008A52C0008D9
:10013000A52C0008A52C0008A52C0008A52C00085B
:10014000A52C0008A52C0008A52C0008A52C00084B
:10015000A52C0008A52C0008A52C0008A52C00083B
:10016000A52C0008A52C0008A52C0008A52C00082B
:10017000A52C0008A52C0008A52C000800000000F4
:08018000A52C0008A52C0008C5
:1001900010B5054C237833B9044B13B10448AFF3C1
:1001A00000800123237010BD8800002000000000A3
:1001B0002473000808B5034B1BB103490348AFF390
:1001C000008008BD000000008C000020247300089F
:1001D00010F8012B11F8013B012A28BF9A42F7D0F1
:1001E000D01A70470000000000000000000000006E
:1001F00001F0FF01102A2BDB10F0070F08D010F8D8
:10020000013B013A8B422DD010F0070F42B3F6D1DB
:10021000F0B441EA012141EA014122F007047FF0F4
:1002200000070023F0E80256083C85EA010586EA4B
:10023000010685FA47F5A3FA87F586FA47F6A5FA87
:1002400087F68EB9EED1F0BC01F0FF0102F0070293
:1002500032B110F8013B013A83EA010313B1F8D13E
:100260000020704701387047002D06BF354603381F
:10027000073815F0010F07D1013015F4807F02BF58
:10028000013015F4C03F0130F0BC0138704700BFA9
:1002900081F0004102E000BF83F0004330B54FEA37
:1002A00041044FEA430594EA050F08BF90EA020FA4
:1002B0001FBF54EA000C55EA020C7FEA645C7FEA37
:1002C000655C00F0E2804FEA5454D4EB5555B8BF5A
:1002D0006D420CDD2C4480EA020281EA030382EACB
:1002E000000083EA010180EA020281EA0303362D5D
:1002F00088BF30BD11F0004F4FEA01314FF4801C30
:100300004CEA113102D0404261EB410113F0004F41
:100310004FEA03334CEA133302D0524263EB4303F8
:1003200094EA050F00F0A780A4F10104D5F1200E96
:100330000DDB02FA0EFC22FA05F2801841F10001F1
:1003400003FA0EF2801843FA05F359410EE0A5F1C5
:1003500020050EF1200E012A03FA0EFC28BF4CF0F6
:10036000020C43FA05F3C01851EBE37101F00045AC
:1003700007D54FF0000EDCF1000C7EEB00006EEBB9
:100380000101B1F5801F1BD3B1F5001F0CD3490843
:100390005FEA30004FEA3C0C04F101044FEA44529A
:1003A00012F5800F80F09A80BCF1004F08BF5FEA21
:1003B000500C50F1000041EB045141EA050130BD01
:1003C0005FEA4C0C404141EB0101013C28BFB1F513
:1003D000801FE9D291F0000F04BF01460020B1FA5E
:1003E00081F308BF2033A3F10B03B3F120020CDA31
:1003F0000C3208DD02F1140CC2F10C0201FA0CF00F
:1004000021FA02F10CE002F11402D8BFC2F1200C73
:1004100001FA02F120FA0CFCDCBF41EA0C01904029
:10042000E41AA2BF01EB0451294330BD6FEA040472
:100430001F3C1CDA0C340EDC04F11404C4F120025D
:1004400020FA04F001FA02F340EA030021FA04F36F
:1004500045EA030130BDC4F10C04C4F1200220FAC6
:1004600002F001FA04F340EA0300294630BD21FA04
:1004700004F0294630BD94F0000F83F4801306BFCA
:1004800081F480110134013D4EE77FEA645C18BFBE
:100490007FEA655C29D094EA050F08BF90EA020F55
:1004A00005D054EA000C04BF1946104630BD91EA4D
:1004B000030F1EBF0021002030BD5FEA545C05D150
:1004C0004000494128BF41F0004130BD14F580048F
:1004D0003CBF01F5801130BD01F0004545F0FE4103
:1004E00041F470014FF0000030BD7FEA645C1ABF38
:1004F000194610467FEA655C1CBF0B46024650EA6F
:10050000013406BF52EA033591EA030F41F400219A
:1005100030BD00BF90F0000F04BF0021704730B520
:100520004FF4806404F132044FF000054FF00001F5
:1005300050E700BF90F0000F04BF0021704730B5B6
:100540004FF4806404F1320410F0004548BF40428B
:100550004FF000013EE700BF42004FEAE2014FEAE0
:1005600031014FEA02701FBF12F07F4393F07F4FBB
:1005700081F06051704732F07F4208BF704793F0BE
:100580007F4F04BF41F40021704730B54FF46074D1
:1005900001F0004521F000411CE700BF50EA0102D4
:1005A00008BF704730B54FF000050AE050EA01027D
:1005B00008BF704730B511F0004502D5404261EBED
:1005C00041014FF4806404F132045FEA915C3FF42E
:1005D000D8AE4FF003025FEADC0C18BF03325FEACB
:1005E000DC0C18BF033202EBDC02C2F1200300FA7C
:1005F00003FC20FA02F001FA03FE40EA0E0021FAA1
:1006000002F11444BDE600BF70B54FF0FF0C4CF48E
:10061000E06C1CEA11541DBF1CEA135594EA0C0F40
:1006200095EA0C0F00F0DEF82C4481EA030621EA7B
:100630004C5123EA4C5350EA013518BF52EA0335B6
:1006400041F4801143F4801338D0A0FB02CE4FF068
:100650000005E1FB02E506F00042E0FB03E54FF098
:100660000006E1FB03569CF0000F18BF4EF0010E90
:10067000A4F1FF04B6F5007F64F5407404D25FEA8C
:100680004E0E6D4146EB060642EAC62141EA55513F
:100690004FEAC52040EA5E504FEACE2EB4F1FD0C81
:1006A00088BFBCF5E06F1ED8BEF1004F08BF5FEAFF
:1006B000500E50F1000041EB045170BD06F00046B1
:1006C00046EA010140EA020081EA0301B4EB5C045E
:1006D000C2BFD4EB0C0541EA045170BD41F4801156
:1006E0004FF0000E013C00F3AB8014F1360FDEBF7B
:1006F000002001F0004170BDC4F10004203C35DA57
:100700000C341BDC04F11404C4F1200500FA05F3D9
:1007100020FA04F001FA05F240EA020001F000427A
:1007200021F0004110EBD37021FA04F642EB0601F0
:100730005EEA430E08BF20EAD37070BDC4F10C041A
:10074000C4F1200500FA04F320FA05F001FA04F2DE
:1007500040EA020001F0004110EBD37041F10001CA
:100760005EEA430E08BF20EAD37070BDC4F12005D5
:1007700000FA05F24EEA020E20FA04F301FA05F23D
:1007800043EA020321FA04F001F0004121FA04F2E5
:1007900020EA020000EBD3705EEA430E08BF20EAB5
:1007A000D37070BD94F0000F0FD101F000464000EF
:1007B00041EB010111F4801F08BF013CF7D041EA71
:1007C000060195F0000F18BF704703F00046520075
:1007D00043EB030313F4801F08BF013DF7D043EA46
:1007E0000603704794EA0C0F0CEA135518BF95EAFC
:1007F0000C0F0CD050EA410618BF52EA4306D1D183
:1008000081EA030101F000414FF0000070BD50EAA1
:10081000410606BF1046194652EA430619D094EA2B
:100820000C0F02D150EA013613D195EA0C0F05D115
:1008300052EA03361CBF104619460AD181EA030169
:1008400001F0004141F0FE4141F470014FF0000021
:1008500070BD41F0FE4141F4780170BD70B54FF0BC
:10086000FF0C4CF4E06C1CEA11541DBF1CEA13553C
:1008700094EA0C0F95EA0C0F00F0A7F8A4EB05041E
:1008800081EA030E52EA03354FEA013100F0888015
:100890004FEA03334FF0805545EA131343EA1263DE
:1008A0004FEA022245EA111545EA10654FEA002693
:1008B0000EF000419D4208BF964244F1FD0404F54C
:1008C000407402D25B084FEA3202B61A65EB0305A8
:1008D0005B084FEA32024FF480104FF4002CB6EB65
:1008E000020E75EB030E22BFB61A754640EA0C00E5
:1008F0005B084FEA3202B6EB020E75EB030E22BF25
:10090000B61A754640EA5C005B084FEA3202B6EB65
:10091000020E75EB030E22BFB61A754640EA9C0024
:100920005B084FEA3202B6EB020E75EB030E22BFF4
:10093000B61A754640EADC0055EA060E18D04FEAB2
:10094000051545EA16754FEA06164FEAC30343EA52
:1009500052734FEAC2025FEA1C1CC0D111F4801F1F
:100960000BD141EA00014FF000004FF0004CB6E718
:1009700011F4801F04BF01430020B4F1FD0C88BFB7
:10098000BCF5E06F3FF6AFAEB5EB030C04BFB6EBC2
:10099000020C5FEA500C50F1000041EB045170BDB5
:1009A0000EF0004E4EEA113114EB5C04C2BFD4EBE2
:1009B0000C0541EA045170BD41F480114FF0000E66
:1009C000013C90E645EA060E8DE60CEA135594EAE2
:1009D0000C0F08BF95EA0C0F3FF43BAF94EA0C0FE5
:1009E0000AD150EA01347FF434AF95EA0C0F7FF45A
:1009F00025AF104619462CE795EA0C0F06D152EAAE
:100A000003353FF4FDAE1046194622E750EA410691
:100A100018BF52EA43067FF4C5AE50EA41047FF4A2
:100A20000DAF52EA43057FF4EBAE12E74FF0FF3C07
:100A300006E000BF4FF0010C02E000BF4FF0010CD8
:100A40004DF804CD4FEA410C7FEA6C5C4FEA430C51
:100A500018BF7FEA6C5C1BD001B050EA410C0CBFA0
:100A600052EA430C91EA030F02BF90EA020F002002
:100A7000704710F1000F91EA030F58BF994208BF69
:100A800090422CBFD8176FEAE37040F00100704726
:100A90004FEA410C7FEA6C5C02D150EA013C07D17D
:100AA0004FEA430C7FEA6C5CD6D152EA033CD3D0C8
:100AB0005DF8040B704700BF8446104662468C46C2
:100AC0001946634600E000BF01B5FFF7B7FF0028F5
:100AD00048BF10F1000F01BD4DF808EDFFF7F4FF1E
:100AE0000CBF012000205DF808FB00BF4DF808EDA9
:100AF000FFF7EAFF34BF012000205DF808FB00BFCC
:100B00004DF808EDFFF7E0FF94BF012000205DF8ED
:100B100008FB00BF4DF808EDFFF7CEFF94BF0120A2
:100B200000205DF808FB00BF4DF808EDFFF7C4FF9B
:100B300034BF012000205DF808FB00BF4FEA4102EE
:100B400012F5001215D211D56FF47873B3EB62521F
:100B500012D94FEAC12343F0004343EA505311F046
:100B6000004F23FA02F018BF404270474FF00000D8
:100B7000704750EA013005D111F0004008BF6FF016
:100B8000004070474FF00000704700BF4A0011D28C
:100B900012F5001211D20DD56FF47873B3EB6252D7
:100BA0000ED44FEAC12343F0004343EA505323FAE3
:100BB00002F070474FF00000704750EA013002D158
:100BC0004FF0FF3070474FF00000704753B94AB9FB
:100BD000002908BF00281CBF4FF0FF314FF0FF3045
:100BE00000F074B9ADF1080C6DE904CE00F006F820
:100BF000DDF804E0DDE9022304B070472DE9F04799
:100C0000089D04468E46002B4DD18A42944669D9F0
:100C1000B2FA82F252B101FA02F3C2F1200120FAD3
:100C200001F10CFA02FC41EA030E94404FEA1C4821
:100C3000210CBEFBF8F61FFA8CF708FB16E341EA1D
:100C4000034306FB07F199420AD91CEB030306F1A3
:100C5000FF3080F01F81994240F21C81023E6344C4
:100C60005B1AA4B2B3FBF8F008FB103344EA034468
:100C700000FB07F7A7420AD91CEB040400F1FF337D
:100C800080F00A81A74240F207816444023840EABA
:100C90000640E41B00261DB1D4400023C5E90043F3
:100CA0003146BDE8F0878B4209D9002D00F0EF8076
:100CB0000026C5E9000130463146BDE8F087B3FAA9
:100CC00083F6002E4AD18B4202D3824200F2F98091
:100CD000841A61EB030301209E46002DE0D0C5E994
:100CE000004EDDE702B9FFDEB2FA82F2002A40F0E0
:100CF0009280A1EB0C014FEA1C471FFA8CFE0126E3
:100D0000200CB1FBF7F307FB131140EA01410EFB86
:100D100003F0884208D91CEB010103F1FF3802D22D
:100D2000884200F2CB804346091AA4B2B1FBF7F027
:100D300007FB101144EA01440EFB00FEA64508D94A
:100D40001CEB040400F1FF3102D2A64500F2BB8087
:100D50000846A4EB0E0440EA03409CE7C6F12007D6
:100D6000B34022FA07FC4CEA030C20FA07F401FA1C
:100D700006F31C43F9404FEA1C4900FA06F3B1FBA5
:100D8000F9F8200C1FFA8CFE09FB181140EA01410A
:100D900008FB0EF0884202FA06F20BD91CEB0101A7
:100DA00008F1FF3A80F08880884240F28580A8F1FF
:100DB00002086144091AA4B2B1FBF9F009FB101151
:100DC00044EA014100FB0EFE8E4508D91CEB0101EF
:100DD00000F1FF346CD28E456AD90238614440EA92
:100DE0000840A0FB0294A1EB0E01A142C846A64612
:100DF00056D353D05DB1B3EB080261EB0E0101FA9B
:100E000007F722FA06F3F1401F43C5E900710026F7
:100E10003146BDE8F087C2F12003D8400CFA02FC4D
:100E200021FA03F3914001434FEA1C471FFA8CFE5D
:100E3000B3FBF7F007FB10360B0C43EA064300FB4D
:100E40000EF69E4204FA02F408D91CEB030300F1EB
:100E5000FF382FD29E422DD9023863449B1B89B2A2
:100E6000B3FBF7F607FB163341EA034106FB0EF32B
:100E70008B4208D91CEB010106F1FF3816D28B42D8
:100E800014D9023E6144C91A46EA004638E72E46A4
:100E9000284605E70646E3E61846F8E64B45A9D29C
:100EA000B9EB020864EB0C0E0138A3E74646EAE70B
:100EB000204694E74046D1E7D0467BE7023B6144B9
:100EC00032E7304609E76444023842E7704700BF22
:100ED000034B0360034B0B6080231360704700BF1C
:100EE000A4020020A400002008B5C82004F0E9FCFA
:100EF000FBE708B54FF47A7004F0E3FCFAE7000072
:100F0000002108B5054804F093F80448042104F0D2
:100F10008FF8012004F0D5FCFBE700BF100600208D
:100F2000F8B5124D124E3C21284603F0ADFB2B685C
:100F30005B6A01F003FF0027044601F0FFFE001B7F
:100F400064280ED9296833684A6A4F62B2F5FA4FAD
:100F5000C6BFC2F580329B189B1A336001F0EEFECB
:100F60000446012004F0ADFCE7E700BF380500208F
:100F7000C44600202DE9F041164D174C3C2128466F
:100F800003F082FB2B685F6A01F0D8FE4FF6FF7614
:100F9000804601F0D3FEA0EB0800B0F57A7F0CD9B3
:100FA0002A68536A1168C9060ED59F4209DDFB1AEB
:100FB000576A236001F0C2FE8046012004F081FCE4
:100FC000E7E7F31A3B44F3E79F4201DADB1BEFE765
:100FD000F71BF7E780050020B426002000B51E4C63
:100FE000A58893B02068A37900903F2200210DF1DD
:100FF00007008DF80630ADF8045005F097FC174B4C
:10100000D3E90001FFF79AFD15490246684605F04D
:1010100095FC0A216A46084605F0A4FB114B1249CB
:101020001A78684605F08AFC6A4614210A2005F001
:1010300099FB0E4B0E4A1B8812880E49684605F034
:101040007DFC6A461E210A2005F08CFB05F0EEFAB5
:10105000C82004F036FCC5E73C730008C8460020F1
:1010600020750008040300202B750008B826002016
:10107000A00600203975000873B50C4E0C4A0D4DC2
:1010800010700C460A2331780093012399402846BA
:1010900002F06EFD317814230093224602234900AA
:1010A000284602F03DFE02B070BD00BF00000020E7
:1010B0002C0300209C04002007B5074B074A517001
:1010C000197810701423009349000223044802F099
:1010D0004FFD03B05DF804FB000000202C0300204E
:1010E0009C0400200000000029492DE9F04753EC42
:1010F000102B0646D1E90001FFF7CEF80446304632
:101100000D46FFF717FA02460B4620462946FFF721
:101110007BFADFF884A002460B46DAE9008906462E
:101120000F46FFF7BBF816A3D3E9002304460D468C
:1011300040464946FFF768FA02460B4620462946D4
:10114000FFF7ACF810A3D3E90023FFF7A7F8FFF7E8
:10115000F5FCC828A8BFC82004464B464246304686
:101160003946FFF79BF80B4B642C1B68B8BF64240F
:10117000CAE900011C64BDE8F08700BFAFF300803E
:10118000C7BAB88D06F0463F00000000006062401C
:10119000C8460020F0040020F802002008B5002115
:1011A0000620FFF789FF0A2004F08BFB8021032033
:1011B000FFF782FF0A2004F084FB07210846FFF7AF
:1011C0007BFF0A2004F07DFB01210620FFF774FF5E
:1011D0000A2004F076FB20217F20FFF76DFF0A2014
:1011E00004F06FFB2F210120FFF766FF0A2004F0B7
:1011F00068FB00210846FFF75FFF0A2004F061FB4F
:1012000000217F20FFF758FF0A2004F05AFB072037
:101210000021FFF751FFBDE808400A2004F051BB50
:101220002DE9F3470023ADF80430FFF7B7FF01F0D5
:1012300085FD8246052004F044FB28A7D7E9006716
:10124000DFF8A8904FF00008052004F03AFB01F009
:1012500075FDA0EB0A006328F6D901A93720FFF736
:101260000BFFBDF80400C0BAFFF764F91DA3D3E972
:101270000023FFF711F80D46044601F05FFDA0EBD7
:101280000A00FFF747F9DFF868A032463B46FFF750
:10129000E5FA22462B46FFF7B7F9DAE90023FEF715
:1012A000FDFF42464B4604460D46FFF733FC38B17E
:1012B00000220023CAE9002301F040FD8246C3E773
:1012C000054B002220462946FFF71AFC0028EFD1E3
:1012D000CAE90045F0E700BF008086C000000000BA
:1012E0000004D040CDCCCCCCCCCC12400080864089
:1012F000C846002000B595B02C22002109A805F0B1
:1013000015FB1422002103A805F010FB0023194A45
:101310000193116C41F080511164126C02F0805203
:101320000192019A144A0293116841F480411160BC
:1013300012680E9302F480420292029A02220892EC
:1013400001201022CDE90B0208A802F075FE01462B
:1013500008B172B6FEE70F23CDE90330CDE90500F1
:10136000079003A803F046F808B172B6FEE715B07F
:101370005DF804FB003802400070004080B5CEB03C
:101380000024A94D01F0B4FCFFF7B4FF14220021A2
:1013900045A805F0CBFA01942B6BA44843F0100349
:1013A0002B632B6B03F010030193019B02942B6BB7
:1013B00043F004032B632B6B03F004030293029BA3
:1013C00003942B6B43F001032B632B6B03F001039E
:1013D0000393039B04942B6B43F008032B632B6B49
:1013E00003F008030493049B05942B6B43F0020362
:1013F0002B632B6B03F002030593224642F2E011AC
:10140000059B02F005FA224689483C2102F000FAC9
:1014100001264FF4F07385484794032745A9CDE989
:101420004536489702F01AF93C23814845A9CDE991
:101430004536CDE947474FF4005802F00FF97B4895
:1014400045A9CDE94586CDE9474402F007F9009466
:101450002B6B43F480032B632B6B764D03F48003DB
:101460002246052100933820009B01F0BFFE382062
:1014700001F0EEFE224605213A2001F0B7FE3A20A7
:1014800001F0E6FE1022214637A805F04FFA1C2293
:1014900021463EA8CDE9304405F048FA20222146F5
:1014A00045A805F043FA644BAC60C5E90034284612
:1014B00041F61F43C5E90334C5E9054403F062FA68
:1014C00008B172B6FEE74FF4805337A92846379328
:1014D00003F09BFC08B172B6FEE7284603F07EFAE3
:1014E00008B172B6FEE7CDE9300030A9284603F016
:1014F00025FE024608B172B6FEE76023CDE93E3014
:10150000CDE94000CDE9420044903EA9284603F0D1
:1015100049FB08B172B6FEE704223EA9284603F053
:1015200041FB08B172B6FEE7CDE94500CDE94700C1
:10153000CDE949084C9045A9284603F03DFE0446F4
:1015400008B172B6FEE73D4D01461C2246A805F0E3
:10155000EDF94FF08043C5E900344FF6FF73C5E95C
:10156000033445A90A232846CDE93E44AC60AC616A
:101570004597479649934B964D9303F087FA08B1E8
:1015800072B6FEE7CDE93E003EA9284603F0D6FD3F
:10159000044608B172B6FEE70146CDE937001C22C9
:1015A0003EA805F0C3F92022214645A805F0BEF962
:1015B000234D2448A023C0E900534FF47A73C0E9B7
:1015C0000334802384604461836103F007FA08B127
:1015D00072B6FEE700231B4837A9CDE9373303F085
:1015E000ADFD08B172B6FEE76023CDE93E30CDE92E
:1015F0004200409044900C2212483EA903F0D2FAD7
:1016000008B172B6FEE7CDE94500CDE94700499043
:101610004FF400534C9045A90A484A9303F0CCFD7F
:10162000044688B172B6FEE700380240001002405E
:101630000000024010060020000401403805002090
:1016400000000140F00400206848694D01F042FAB2
:1016500021461C2246A805F069F9664BAC60C5E935
:101660000034032301274FF6FF76459345A90A234B
:101670002846CDE93E44C5E90364AC6147974993E8
:101680004B974D9303F002FA08B172B6FEE7CDE92D
:101690003E003EA9284603F051FD034608B172B64C
:1016A000FEE75548554C03614FF4E132C0E9004272
:1016B0000C22C0E90233C0E90523C36103F066FED2
:1016C000034608B172B6FEE74D484E494E4A0362E2
:1016D000C0E900124FF48042C0E90233C0E904239C
:1016E000C0E9063302F09CF9054608B172B6FEE780
:1016F0004FF01008454CCDE93E000146424645A852
:1017000005F014F9424B25612046C4E90038C4E9CC
:101710000256A56103F08EF908B172B6FEE7CDE975
:101720003E003EA9204603F009FD024608B172B60C
:10173000FEE7CDE94507CDE9470045A9204603F07E
:10174000C7FA08B172B6FEE7324C334F10220021BF
:1017500045A805F0EBF8314AA76200230125204691
:10176000C4E90023A3602361257684F82030E36276
:10177000E360E56184F83050656101F0F9FA08B181
:1017800072B6FEE70B23479045A92046CDE94535C3
:1017900001F088FC064608B172B6FEE7204C01460F
:1017A000102245A805F0C2F81E4BA6602046C4E9E9
:1017B0000036C4E90A762661257684F82060E66062
:1017C000E56184F83050656101F0D2FA08B172B673
:1017D000FEE70C23479045A92046CDE9453501F0A9
:1017E00061FC054600B372B6FEE700BFF0040020BE
:1017F00080050020000400405806002000480040FA
:101800009C04002000540040A0860100C805002070
:10181000000800404C0300200100000F00200140A0
:1018200094030020002101404E4C04F0BBFF4E49C0
:101830004E48052203F0F9FF0FCC06AE0FC694E820
:10184000070086E80700294606A804F012F8484B6E
:1018500004F10C0718600FCF0DAE0FC697E8070014
:1018600086E8070029460DA804F003F8414B04F16F
:10187000280718600FCF14AE0FC697E8070086E858
:101880000700294614A803F0F4FF3B4B04F144077A
:1018900018600FCF1BAE0FC697E8070086E8070059
:1018A00029461BA803F0E5FF344B04F160071860DC
:1018B0000FCF22AE0FC697E8070086E8070029463B
:1018C00022A803F0D6FF2E4B04F17C0718600FCF3F
:1018D00029AE0FC697E8070086E80700294629A821
:1018E00003F0C7FF274B04F1980718600FCF30AE05
:1018F0000FC697E8070086E80700294630A803F0DE
:10190000B8FF214B04F1B40718600FCF37AE0FC6F4
:1019100097E8070086E80700294637A803F0A9FFE3
:101920001A4B04F1D00718600FCF3EAE0FC697E8F0
:10193000070086E8070029463EA803F09AFF144BEB
:10194000EC3418600FCC45AE0FC694E8070086E86B
:101950000700294645A803F08CFF0E4B186003F0E2
:101960007CFFFEE78473000818030020580600205F
:1019700040030020BC4600209C060020B02600202A
:10198000C0460020A0260020A82600201403002026
:10199000B84600204803002070B5067F012E04469B
:1019A00010D1274D297871B902F0C9FE254B2E7050
:1019B000186023681A6A22F00A021A621A6A42F050
:1019C00002021A6270BD0129FCD1002102F0B7FEAB
:1019D0001D4B1860236800225A621A4B1B4A1B6871
:1019E000984222D9C31A13601068FEF793FD12A320
:1019F000D3E90023FEF708FE154B0022FEF704FE94
:101A0000FFF7C4F8134B0430187000232B702368C1
:101A10001A6A22F00A021A621A6A1A620E4B1A68CD
:101A2000D36823F00203D360CCE7DDD2C3F57F4354
:101A3000FF330344D7E700BF9CC420B07268A13FC6
:101A400010030020080300200C03002000030020E6
:101A50000000E03F04030020C805002010B50B4C37
:101A600001224FF40051204601F0D2FE0A2003F07B
:101A700028FF00224FF40051204601F0C9FE044B1C
:101A80001A68D36843F00203D36010BD001002400F
:101A9000C805002008B50B490B484FF4805201F0EF
:101AA0000DFA4FF480520949094801F007FA094B31
:101AB0001B6893221A64FFF7D1FFC82003F001FFCF
:101AC000F9E700BFB82600204C030020A006002044
:101AD00094030020F004002010B50C210E4803F000
:101AE000A7FA0E4B0E481B6800245C6301229C631E
:101AF000082101F08DFE22460948042101F088FEEC
:101B000007480122102101F083FE22460448BDE867
:101B10001040202101F07CBEF004002010060020BF
:101B20000000024008B51149114804F027FF104891
:101B300004F0C0FE4FF47A720E4990FBF2F302FB00
:101B400013000D4A0B60106043B9FFF7C5FF0B4946
:101B50000B484FF6FF73052203F046FCBDE8084032
:101B600002490748052203F060BE00BF18030020A9
:101B70000C000020A426002004000020447500086A
:101B80005806002008B5034C2368002BFDD1FFF751
:101B9000A3FFF9E7A42600202DE9F84F464D2DEDCF
:101BA000028B04468A46FFF797FF642003F089FE04
:101BB0000C21284603F03CFA40492046FEF708FB7A
:101BC000002855D12B6865221A643D48DFF808B11A
:101BD0000122082101F01CFE39480022042101F0F5
:101BE00017FE37480122102101F012FE202134484F
:101BF000002201F00DFE334B1B6840F2DC525A63A9
:101C00009A6303F02FFE9FED268B01F097F80023D7
:101C1000CBF800302C4B83ED008B2C4B0FF2880956
:101C2000D9E9008983ED008B21A7D7E90067DBF8AC
:101C30000000FEF77FFC42464B46FEF70FFE3246A1
:101C40003B46FEF7E1FC044650460D46FEF772FCAB
:101C500002460B4620462946FEF748FF044688B94F
:101C6000FFF73AFFBDEC028B194B1C60BDE8F88F03
:101C700018492046FEF7ACFA2B6808B9DC22A3E726
:101C80009322A1E70120B0EE480AF0EE680AFFF7C0
:101C90002BFA012003F015FEC9E700BFAFF3008067
:101CA0000000000000000000000000000050944010
:101CB0000AD7A3703D0A3540F0040020497500089A
:101CC0000000024010060020C8460020F802002054
:101CD000A42600204E750008C44600200000000025
:101CE0002DE9F84F2DED028B9FED7F8B07468A463D
:101CF000854E864CDFF83082FFF7EEFE642003F05D
:101D0000E0FD83480022082186ED008B01F080FD74
:101D10007F480122042101F07BFD7D480022102133
:101D200001F076FD01227A48202101F071FD0C219D
:101D3000204603F07DF977493846FEF749FA054613
:101D4000002850D12368DFF8E49165221A64082145
:101D500002466F4801F05CFD6D480122042101F04C
:101D600057FD6B482A46102101F052FD0122202127
:101D7000674801F04DFDFA2003F0A3FDD8F80030CC
:101D80004FF4FA725A6340F2DC529A630A2003F06D
:101D900098FD4FF00008D6E9000142464B46FEF799
:101DA000B9FE0546D8B9FFF797FE0A2003F089FD72
:101DB000FFF792FE236893221A64C82003F081FD86
:101DC00007215548FFF7E8FEC82003F07AFDFFF72A
:101DD00083FE524B1D60BDEC028BBDE8F88F0A20DC
:101DE00003F06FFDD7E74E493846FEF7F1F9236857
:101DF0000546A0BBDC221A6408210246444801F0D3
:101E000007FD43480122042101F002FD40482A4613
:101E1000102101F0FDFC012220213D4801F0F8FCD9
:101E2000FA2003F04EFDD8F8003040F2DC525A633D
:101E30004FF4FA729A630A2003F043FD0FF2B009DF
:101E4000D9E90089D6E9000142464B46FEF758FE23
:101E500005460028A7D00A2003F033FDF2E79322BD
:101E60001A64D8F80030DFF8C8B04FF47A725A63B9
:101E70009A630023CBF800302A4B86ED008B83ED6C
:101E8000008B0FF27409D9E900891DA7D7E9006713
:101E9000DBF80000FEF74EFB42464B46FEF7DEFC49
:101EA00032463B46FEF7B0FB044650460D46FEF771
:101EB00041FB02460B4620462946FEF717FE044624
:101EC00020B9FFF709FE154B1C6084E74FF0FF3087
:101ED000B0EE480AF0EE680AFFF706F9012003F0B9
:101EE000F0FCD5E7AFF30080000000000000000028
:101EF0000000000000C05640000000000070974045
:101F00000AD7A3703D0A35C0C8460020F00400205F
:101F1000000002404975000854750008A4260020FE
:101F20004E750008F80200201006002000C055C0C1
:101F3000C44600202DE9F84FDFF808A13D4D0026EA
:101F400000270C2183465046C5E9006703F070F86E
:101F5000DAF800303848DC221A640821012201F046
:101F600057FC35480022042101F052FC324801227E
:101F7000102101F04DFC202100222F4801F048FCE7
:101F8000FA2003F09EFC2D4B1B6840F2DC525A6392
:101F90004FF4FA729A630A2003F093FCD5E900012A
:101FA00032463B46FEF730FBC5E9000100264FF004
:101FB0008047D5E9002330463946FEF76DF9804663
:101FC00058468946FEF7B6FA02460B464046494651
:101FD000FEF796FD044648BBFFF77EFD22461648F5
:101FE000082101F015FC14480122042101F010FC25
:101FF00022461148102101F00BFC012220210E483D
:1020000001F006FC0A2003F05CFC0A2003F059FCF6
:10201000FFF762FDDAF8003093221A64084B4FF4A0
:102020007A701C60BDE8F84F03F04BBC0A2003F047
:1020300048FCBEE7C8460020000002401006002011
:10204000A4260020F00400202DE9F8433B4F3C4E2D
:102050000022002305460C213846C6E9002302F081
:10206000E7FF3B68374865221A640821012201F026
:10207000CFFB34480022042101F0CAFB3148012281
:10208000102101F0C5FB202100222E4801F0C0FBE9
:10209000FA2003F016FC2C4B1B684FF4FA725A63BB
:1020A00040F2DC529A630A2003F00BFCD6E9008967
:1020B000264B002240464946FEF7D0FB02460B461F
:1020C00040464946FEF7E8F8C6E90001023D2846C9
:1020D000FEF730FAD6E90023FEF71CFD044640BBAC
:1020E000FFF7FAFC22461748082101F091FB15483A
:1020F0000122042101F08CFB22461248102101F03C
:1021000087FB012220210F4801F082FB0A2003F007
:10211000D8FB0A2003F0D5FBFFF7DEFC3B689322D7
:102120001A640B4B4FF47A701C60BDE8F84303F05F
:10213000C8BB0A2003F0C5FBC9E700BFF0040020BC
:10214000C8460020000002401006002000804640E3
:10215000A4260020104B10B5002104460020C3E93E
:10216000000101220D48082101F052FB0B4800221A
:10217000042101F04DFB09480122102101F048FB28
:1021800000220648202101F043FB054B1B6804F1A7
:1021900032025A639C6310BDC84600200000024012
:1021A000100600200F4B10B5002104460020C3E9A3
:1021B000000100220C48082101F02AFB0A480122F4
:1021C000042101F025FB08480022102101F020FB2A
:1021D00005480122202101F01BFB044B1B685C63B6
:1021E0009C6310BDC846002000000240100600207D
:1021F00010B52DED028BFEF7D1FF4FF47A7003F08E
:1022000060FB40F21450FFF7A5FF9FED138B144CB9
:102210002378142B10D8FFF75FFC4FF47A70FFF788
:10222000C1FF2378132B12D9FFF756FCBDEC028BAC
:102230000C4B00221A6010BD0120B0EE480AF0EEEF
:10224000680AFEF751FF012003F03BFBE0E70120A5
:1022500003F037FBE5E700BF0000000000000000CE
:1022600004030020A42600202DE9F041A848A94E2F
:102270002DED028B002102F0DDFE9FEDA38B336874
:10228000142B00F23082DFE813F015001B002E0043
:102290003C00470072005B012E022E022E022E022D
:1022A0002E022E022E022E022E022E022E022E02AE
:1022B0002E022102FFF710FC012003F002FBDEE7F3
:1022C000FEF76CFF4FF47A7003F0FBFA924B9348E1
:1022D0001968FFF761FC92494FF6FF730522914898
:1022E00003F082F8E8E7FEF759FF4FF47A7003F045
:1022F000E8FA894B1868FFF7A7FE012003F0E1FA1E
:10230000E9E7FEF74BFF4FF47A7003F0DAFA824BFD
:102310001868FFF70FFEF0E7FEF740FF4FF47A7002
:1023200003F0CFFA40F21450FFF714FF7E4C2378ED
:102330001E2B0DD8FFF7D0FB4FF47A70FFF732FF5A
:1023400023781D2B0FD9FFF7C7FB00233360B3E7BA
:102350000120B0EE480AF0EE680AFEF7C5FE012043
:1023600003F0AFFAE3E7012003F0ABFAE8E7DFF8A8
:10237000CC816E4CD8F800306D4D002B7ED1FEF72D
:102380000DFF4FF47A7003F09CFA2B2084ED008B44
:10239000FFF75AFE08216148634F84ED008BFFF779
:1023A000FBFB4FF4FA7084ED008B03F08AFA2D20CA
:1023B000FFF7C0FD0521594884ED008BFFF7ECFBCA
:1023C0002D20FFF7B7FD0821544884ED008BFFF75F
:1023D000E3FB2D2084ED008BFFF736FE0A214F48EA
:1023E00084ED008BFFF77CFC4FF4FA6084ED008BEA
:1023F00003F067FA3B784A492B6005224FF6FF73DA
:1024000048484C4D02F0F0FF01234FF47A70C8F8B1
:10241000003003F056FAFEF7C1FEDFF800813B788A
:102420001E2B15D82B680A225343434A84ED008B98
:102430001360FFF751FB40F21450FFF7B3FE3B78F7
:102440001D2B17D9FFF748FB384B83ED008B7CE73A
:102450000A214046FFF7A0FBB0EE480AF0EE680AFA
:102460002B68012001332B60FEF73EFE012003F0B4
:1024700028FAD4E7012003F024FAE0E7FEF78EFE05
:102480004FF47A7003F01DFA5A2084ED008BFFF7A9
:10249000DBFD5A2084ED008BFFF74CFD05211F4822
:1024A00084ED008BFFF778FB5A2084ED008BFFF75B
:1024B00041FD84ED008BFFF70FFB35211748FFF737
:1024C0006BFB5A20FFF736FD1B4B2A681B6813482D
:1024D0009342C8BF2B6029684B3184ED008BFFF716
:1024E0005BFB5A2084ED008BFFF724FD0B48032192
:1024F00084ED008BFFF7F4FB5A20FFF7A5FD84ED78
:10250000008BFFF775FED7E600000000000000001A
:10251000C8050020A42600200400002054750008EF
:10252000447500085806002004030020C846002017
:102530004403002008000020D0460020AC260020E4
:102540006C4F3B68002B7CD16B4C6C4DDFF8B0813D
:10255000FEF724FE4FF47A7003F0B3F92D2084EDDA
:10256000008BFFF7E7FC0A21654884ED008BFFF73D
:1025700013FB4FF4FA7084ED008B03F0A2F92D20C9
:10258000FFF762FD05215E4884ED008BFFF704FB39
:102590002D2084ED008BFFF757FD0821584884ED6E
:1025A000008BFFF7F9FA302084ED008BFFF7C2FCB7
:1025B0000A21534884ED008BFFF792FB4FF4FA6039
:1025C00084ED008B03F07DF94E4B2A784E491A605A
:1025D0004E4805224FF6FF7302F006FF01234FF429
:1025E0007A703B6003F06DF9FEF7D8FD484F2B7809
:1025F0001E2B14D83B680A225343464A84ED008BB5
:102600001360FFF769FA40F21450FFF7CBFD2B7807
:102610001D2B3FF617AF012003F053F9F7E70A210E
:102620004046FFF7B9FAB0EE480AF0EE680A3B6898
:10263000012001333B60FEF757FD012003F041F913
:10264000D5E7012B7FF438AE2B4CFEF7A7FD4FF4F6
:102650007A7003F036F95A2084ED008BFFF76AFC9C
:10266000582084ED008BFFF7EFFC0521244884ED12
:10267000008BFFF791FA582084ED008BFFF7E4FC04
:1026800084ED008BFFF728FA3E211D48FFF784FAFE
:10269000582084ED008BFFF7D7FC1E4B18481A68B2
:1026A000184B19688A42C8BF1A6019684B3184ED0B
:1026B000008BFFF771FA582084ED008BFFF7C4FC04
:1026C0005A2084ED008BFFF735FC18E7BFF34F8FDE
:1026D0001149124BCA6802F4E0621343CB60BFF3A6
:1026E0004F8F00BFFDE7FFF7F7F90D494FF6FF7376
:1026F0000522F4E5AC260020C84600200403002093
:102700005475000844030020447500085806002052
:1027100008000020D046002000ED00E00400FA058B
:102720005D75000872B6FEE782B00E4B0022009283
:10273000596C41F480415964596C01F48041009115
:1027400000990192196C41F0805119641B6C03F0DF
:1027500080530193019B0F216FF0010002B000F044
:1027600045BD00BF0038024070B514228AB005464E
:1027700000210DEB020004F0D9F82B68344A934293
:102780003CD1344B3448354C002601965A6C42F407
:1027900080725A645A6C02F480720192019A029615
:1027A0001A6B42F004021A631B6B03F004030293DA
:1027B000029B4FF0020E032305A9CDE905E300F0CB
:1027C0004DFF274BC4E900364FF400634FF480629D
:1027D000C4E904234FF400514FF48073C4E9026646
:1027E000C4E90613C4E90866204600F069FD08B193
:1027F000FFF798FFAC63A5630AB070BD194A934216
:10280000FAD1144B184C002603965A6C42F400720D
:102810005A645A6C02F400720392039A04961A6B7B
:1028200042F004021A631B6B03F004030493049B3D
:1028300004200323CDE9050305A9074800F00EFF96
:10284000DFF828C04FF00073C4E900C3BCE700BF45
:10285000002001400038024000080240DC03002054
:1028600010640240002101403C040020406402400A
:1028700030B5044689B01422002103A804F056F8AC
:102880002268144B9A4222D1134C1448002501951A
:10289000236B43F002032363236B03F002030193D2
:1028A000019B4FF440721223CDE90323032104233B
:1028B000CDE9061303A900F0D1FE0295236C43F481
:1028C00000132364236C03F400130293029B09B0EA
:1028D00030BD00BF005400400038024000040240F8
:1028E0000268094B9A4282B00BD100230193074B37
:1028F0005A6C42F001025A645B6C03F001030193CD
:10290000019B02B0704700BF000001400038024048
:10291000F0B514228BB0044600210DEB020004F048
:1029200005F82368B3F1804F39D103F50E33002445
:1029300000941A6C2B4842F001021A641A6C02F0DF
:1029400001020092009A01941A6B42F001021A638C
:102950001A6B02F001020192019A02941A6B42F082
:1029600002021A631B6B03F002030293029B02270D
:102970004FF400430326012505A9CDE90537CDE92C
:10298000086500F06BFE0823CDE90537CDE9074661
:102990001548099505A900F061FE0BB0F0BD134A7A
:1029A0009342FAD1124B0F48002103911A6C42F066
:1029B00002021A641A6C02F002020392039A049152
:1029C0001A6B42F001021A631B6B03F001030493BC
:1029D000C022049B0223CDE905230322CDE908236D
:1029E00005A9D8E7000002400004024000040040AE
:1029F0000038024010B5044688B01422002103A814
:102A000003F094FF2268174B9A4228D103F50C3348
:102A1000002401941A6C144842F004021A641A6CDF
:102A200002F004020192019A02941A6B42F0080229
:102A30001A631B6B03F0080302934FF48052029B4E
:102A400003A90223CDE90323079300F007FE1E200C
:102A50002246052100F0CAFB1E2000F0F9FB08B059
:102A600010BD00BF00080040000C024010B5044635
:102A700088B01422002103A803F058FF2268134BEA
:102A80009A4220D103F59A33002101915A6C1048E3
:102A900042F002025A645A6C02F002020192019A58
:102AA00002911A6B42F004021A631B6B03F00403D9
:102AB0000293029BC0220223CDE9032303A903232F
:102AC000079300F0CBFD08B010BD00BF000401402B
:102AD0000008024010B5044686B01422002101A867
:102AE00003F024FF22680F4B9A4218D10023009371
:102AF0000D4B0E481A6B42F010021A631B6B03F069
:102B000010030093009B4FF4804202230321CDE980
:102B100001230123CDE9041301A900F09FFD06B0B4
:102B200010BD00BF0000014000380240001002400C
:102B300010B5044688B01422002103A803F0F6FE65
:102B40002268184B9A422BD103F5F83300240194E4
:102B50001A6C154842F480221A641A6C02F480221E
:102B60000192019A02941A6B42F004021A631B6BE1
:102B700003F0040302934FF44062029B0223CDE969
:102B8000032303210723CDE9061303A900F066FD03
:102B900027202246052100F029FB272000F058FBC2
:102BA00008B010BD0048004000080240FEE7FEE704
:102BB000FEE7FEE7FEE7704708B500F0B3F803F064
:102BC0004FFA012803D0BDE8084003F02BBB08BD35
:102BD000014801F0CEBD00BFC8050020014802F049
:102BE000B9BC00BF58060020014800F079BC00BF06
:102BF000DC030020014800F073BC00BF3C0400204F
:102C00000B4A116810B5034609B90A4911601068EA
:102C100009490A4C0344091B8B4206D903F04EFEB6
:102C20000C2303604FF0FF3010BD1360FCE700BFC2
:102C3000D44600204088002000000220000400004C
:102C4000034AD2F8883043F47003C2F888307047E2
:102C500000ED00E0DFF834D00D480E490E4A0023A5
:102C600002E0D458C4500433C4188C42F9D30B4A40
:102C70000B4C002301E013600432A242FBD3FFF7A8
:102C8000DFFF03F021FEFEF779FB70470000022012
:102C9000000000208800002030810008880000200B
:102CA0003C880020FEE7000038B50E4A0E4B054672
:102CB00018784FF47A73B3FBF0F31068B0FBF3F0BD
:102CC00000F0D4FA044658B90F2D09D80246294617
:102CD0004FF0FF3000F08AFA044B20461D6038BDEB
:102CE0000120FCE714000020180000201C00002038
:102CF00008B50B4B1A6842F400721A601A6842F465
:102D000080621A601A6842F480721A60032000F030
:102D10005BFA0F20FFF7C8FFFFF706FD002008BD94
:102D2000003C0240034A044B11681B780B441360BB
:102D3000704700BFD846002018000020014B1868DB
:102D4000704700BFD846002038B50446FFF7F6FFAD
:102D5000631C1CBF054B1B78054618BFE418FFF722
:102D6000EDFF431BA342FAD338BD00BF180000207B
:102D700038B50446002800F09B80056C25B9FFF7A4
:102D8000F3FC656484F83C50236CDB0600F18E8014
:102D9000236C23F4885323F0020343F002032364DB
:102DA000444B5A6822F440325A605A6861680A43B8
:102DB0005A60236821695A6822F480725A605A68FE
:102DC00042EA01225A605A68A16822F040725A60B1
:102DD0005A680A435A609A68E16822F400629A606D
:102DE0009A680A439A603449A26A8A4252D0996822
:102DF00021F07061996099680A439A609A68E16A63
:102E000022F040529A609A680A439A609A6822F0C7
:102E100002029A609A68217E42EA41029A6094F81E
:102E20002020002A3ED05A68616A42F400625A604B
:102E30005A6822F460425A605A68013942EA4132C3
:102E40005A60DA6AE16922F47002DA62DA6A0139F8
:102E500042EA0152DA629A6822F400729A609A6831
:102E600094F8301042EA41229A609A68616922F42B
:102E700080629A609A68002042EA81229A606064C7
:102E8000236C23F0030343F001032364002384F83D
:102E90003C3038BD9A6822F070629A609A6822F0DD
:102EA0004052B2E75A6822F40062C9E70120EDE718
:102EB0000120EEE7002301400100000F73B5134627
:102EC0000022019290F83C20012A054600F08C80F7
:102ED0000122066880F83C20B268D40754D5B26855
:102EE000D00564D4B46814F0010474D0286C20F4C4
:102EF000E06020F0010040F48070286472685205A0
:102F000041BF286C20F4405040F4805028642A6C63
:102F1000A86B12F480521CBF6A6C22F006026A642D
:102F20000024334A85F83C40C263324A0264324A84
:102F3000C2646FF022023260726842F08062726096
:102F4000B26842F48072B2600A4606F14C0100F0A9
:102F500037FA2A4A2B685068294910F01F0032D1ED
:102F60008B4207D001F580718B4225D1526812F057
:102F70001F0F07D1986810F0405037D19A6842F07F
:102F800080429A6002B070BDB26842F00102B26045
:102F90001C4A10681C4AB0FBF2F000EB40000190A4
:102FA000019A002A9BD0019A013A0192F8E7B2688F
:102FB00022F48072B26095E714498B42E2D15268E4
:102FC00012F0100FD5E78B4210D1986810F04050E6
:102FD000D4D02046D6E72B6C43F010032B646B6CE7
:102FE00043F001036B64F4E70220CBE70020C9E75C
:102FF0003730000815300008213000080023014058
:10300000002001401400002040420F000022014037
:103010007047704708B5806BFFF7FBFF08BD70472E
:10302000806B08B540230364436C43F0040343649E
:10303000FFF7F5FF08BD836B1A6C12F0500F10B547
:103040001A6C23D142F400721A641A68916811F064
:10305000405F17D1197EA9B9D16A11F4700F02D05F
:10306000916848050ED4516821F0200151601A6C16
:1030700022F480721A641A6CD1045EBF1A6C42F09A
:1030800001021A641846FFF7C3FF10BDD20603D52C
:103090001846FFF7C4FFF8E79B6BBDE81040DB6CF8
:1030A00018470000F7B50023019390F83C30012B3E
:1030B00066D0012380F83C300D6803688E68092DC6
:1030C000ACB231D904EB4402DF681E3A4FF0070C72
:1030D0000CFA02FC27EA0C07DF60DF6806FA02F24E
:1030E0003A43DA604968062901EB81022CD8596B12
:1030F000053A1F26964021EA06015963596B04FAE6
:1031000002F20A435A632C4A934207D1122D39D155
:10311000D2F8043343F48003C2F80433002380F868
:103120003C30184603B0F0BD1F6905EB45024FF077
:10313000070C0CFA02FC27EA0C071F611F6906FA4C
:1031400002F23A431A61CDE70C294FF01F010BD868
:103150001E6B233A914026EA01011963196B04FAA8
:1031600002F20A431A63CEE7DE6A413A914026EA48
:103170000101D962D96A04FA02F20A43DA62C2E7AB
:103180000220CFE7A5F11003012BC7D80B4A5368E3
:10319000102D43F400035360C0D1094B094A1B684A
:1031A000B3FBF2F30A2253430193019B002BB5D0EA
:1031B000019B013BF8E700BF0020014000230140D4
:1031C0001400002040420F000749CA6822F4E06260
:1031D0000302120403F4E063120C134343F0BF63D1
:1031E00043F40033CB60704700ED00E0164B30B580
:1031F000DC68C4F30224C4F10705231D042D28BF95
:103200000425062B4FF0FF338CBF033C002403FA48
:1032100005F521EA0501A34022EA0302A1400028A6
:1032200041EA0203ACBF00F16040084A4FEA0313D1
:10323000B8BF00F00F00DBB2AABF00F56140135425
:1032400080F8003330BD00BF00ED00E014ED00E079
:10325000002808DB4209012300F01F0003FA00F0F8
:10326000014B43F82200704700E100E00138B0F163
:10327000807F0BD24FF0E023054A5861F02182F89D
:1032800023100020072298611A61704701207047BF
:1032900000ED00E0036810B5084C0246D9B21039C1
:1032A0001820B1FBF0F0205CD06523F47F7020F093
:1032B00003005F2988BF0430906510BD7975000850
:1032C00070B50446FFF73AFD0546002C73D0022383
:1032D00084F835302268002384F83430136823F0F2
:1032E0000103136021680B68D8072FD40B68334D96
:1032F000A0691D40D4E901231343E2681343226906
:10330000134362691343E26903431343226A13437D
:10331000626A042A43EA050302BFD4E90B56354327
:103320002B430B604B69042A23F0070343EA020393
:1033300033D1A26AE56A13437DB390B9012A21D043
:1033400032F0020229D1EA0127D51EE0FFF7F6FC90
:10335000401B0528C6D920236365032084F8350067
:1033600070BDB0F5005F14D1032A16D801A050F843
:1033700022F000BF8B330008473300088B3300086E
:1033800085330008B5F1C07F07D140236365012074
:10339000E4E7022AF9D9032AD5D04B612046FFF78A
:1033A00079FFE26D3F239340836000200123606535
:1033B00084F83530D4E70120D2E700BF3F8010F019
:1033C00070B590F83440866D012C31D0012480F81E
:1033D000344090F83540012C4FF000054FF00204C6
:1033E00024D180F8354004684565256825F480259A
:1033F000256063608368402B0EBFA260A160E2601D
:10340000C26D08BFE1603F239340B360236843F07F
:1034100016032360036C1BB1236843F00803236089
:10342000236843F001032360002070BD80F834500E
:103430000220FAE770B50446866DFFF77FFC94F82A
:103440003530022B054606D080236365002384F8BF
:103450003430012070BD23681A6822F016021A6009
:103460005A6922F080025A61226C0AB9A26C1AB120
:103470001A6822F008021A601A6822F001021A6023
:1034800023681B6813F001030AD1E16D3F228A40D3
:10349000B260012284F8352084F834301846D9E728
:1034A000FFF74CFC401B0528EAD920236365032065
:1034B000002384F8350084F83430CBE790F83530B9
:1034C000022B03D080234365012070470268052347
:1034D00080F83530136823F0010313600020704733
:1034E000F7B5002301935C4B856D1F68C36D2E6893
:1034F00008229A40324204460CD00168086840070E
:1035000008D5086820F004000860AA60626D42F0E7
:103510000102626501229A40324208D0216849695D
:10352000090641BFAA60626D42F002026265042290
:103530009A40324208D021680968880741BFAA60D2
:10354000626D42F00402626510229A40324210D04D
:103550002368196809070CD5AA601A68500337D583
:103560001B68190301D4236C00E0A36C0BB1204647
:103570009847E16D20228A4032423AD02368186889
:10358000C60636D5AA6094F83520052A1A6827D1D0
:1035900022F016021A605A6922F080025A61226CE7
:1035A0000AB9A26C1AB11A6822F008021A603F2305
:1035B0008B40AB60012384F83530002384F834302D
:1035C000236D002B45D0204603B0BDE8F0401847DE
:1035D0001A68D2055EBF1A6822F008021A60C2E7B4
:1035E000500327D51B68190331D4636C0BB12046F7
:1035F0009847636D6BB3636DDA0719D522684FF492
:103600001653B7FBF3F7052384F83530136823F01E
:1036100001031360019B0133BB42019302D813687D
:10362000DB07F7D4012384F83530002384F83430E5
:10363000E36CC6E71A6812F4807208D1196821F0A9
:1036400010011960012384F8353084F83420E36BCD
:10365000CCE703B0F0BD00BF140000202DE9F74F08
:10366000DFF8A891674A00230D6801249C4004EA12
:10367000050CAC4340F0B1804D6805F003044FEAFF
:1036800043080326671E06FA08F6012F6FEA0606AE
:1036900034D8876807EA060ECF6807FA08F747EAC2
:1036A0000E078760476827EA0C0EC5F300179F4096
:1036B00047EA0E074760C76807EA060E8F6807FAF1
:1036C00008F747EA0E07022CC76019D14FEAD30A60
:1036D00000EB8A0A03F0070BDAF820704FEA8B0B35
:1036E0004FF00F0E0EFA0BFE27EA0E0E0F6907FAC7
:1036F0000BF747EA0E07CAF8207001E0032CDAD175
:10370000076804FA08F43E40264315F4403F06607B
:1037100063D04FF0000ACDF804A0D9F844603A4CC9
:1037200046F48046C9F84460D9F8446006F48046FF
:103730000196019E23F0030606F1804606F59C36AD
:1037400003F0030ED6F808804FEA8E0E0F2707FA13
:103750000EF7A04228EA070746D004F58064A0428D
:1037600044D004F58064A04242D004F58064A042B5
:1037700040D004F58064A0423ED004F58064A042AD
:103780003CD004F58064A0423AD004F58064A042A5
:103790000CBF0724082404FA0EF43C43B460946878
:1037A0006FEA0C06EF0254BF34404CEA0404946004
:1037B000D468AF0254BF34404CEA0404D460546867
:1037C000AF0354BF34404CEA040454601468ED0362
:1037D00054BF34404CEA040414600133102B7FF4CE
:1037E00043AF03B0BDE8F08F5446D4E70124D2E7DD
:1037F0000224D0E70324CEE70424CCE70524CAE75B
:103800000624C8E7003C01400000024000380240A6
:103810000AB1816170470904FBE701684B6913F441
:1038200080634FF0000210D06FF480634B6120235F
:10383000026380F83D3080F83E20036C80F83C2025
:1038400043F00403036401207047184670472DE9D4
:10385000F84606460F4691461D464FEA114A336820
:10386000BAF1010F0CBF5C699C6927EA0404A4B299
:10387000B4FA84F46409A14501D0002017E06A1C61
:10388000EED0FFF75BFA089BC01AA84201D8002DC2
:10389000E5D100232022336386F83D2086F83E30B0
:1038A000326C86F83C3042F0200232640120BDE8E0
:1038B000F8862DE9F04104460F46164698462568DD
:1038C000686927EA000080B2B8B16B695A0516D55D
:1038D0002B6843F400732B606FF480636B612022CC
:1038E0000023236384F83D2084F83E30226C42F0AC
:1038F0000402226484F83C300120BDE8F081731C8E
:10390000DED0FFF71BFAA0EB0800B04201D8002E72
:10391000D5D100232022236384F83D2084F83E3053
:10392000226C42F02002E4E770B504460D461646CC
:1039300021684B6913F0400301D0002010E04A6970
:10394000D2060ED56FF010024A612022236384F85C
:103950003D2084F83E30226C226484F83C30012003
:1039600070BDFFF7EBF9801BA84201D8002DDFD115
:1039700000232022236384F83D2084F83E30226C0B
:1039800042F02002E8E770B504460D46164623686B
:103990005B695B0701D5002070BD2046FFF73DFF46
:1039A000A8B96A1CF3D0FFF7C9F9801BA84201D857
:1039B000002DECD100232022236384F83D2084F8DD
:1039C0003E30226C84F83C3042F020022264012018
:1039D000E2E770B504460D46164623685B691B0690
:1039E00001D5002070BD2046FFF717FFA8B96A1C5B
:1039F000F3D0FFF7A3F9801BA84201D8002DECD12A
:103A000000232022236384F83D2084F83E30226C7A
:103A100084F83C3042F0200222640120E2E70000FA
:103A200070B5044608B9012070BD90F83D3003F030
:103A3000FF021BB980F83C20FEF71AFF242384F80C
:103A40003D3023681A6822F001021A601A6842F4B5
:103A500000421A601A6822F400421A6000F066FD03
:103A60003F4B65689D4294BF3E4B3F4B98428CBF95
:103A700000230123002BD6D12268394E53683B49DD
:103A8000B0FBF1F123F03F030B43B542536088BF15
:103A90004FF49676136A88BF714323F03F0384BFC7
:103AA0004FF47A76B1FBF6F1013119431162D16915
:103AB000431E2B4821F44F41854221F0FF0132D8AB
:103AC0006D0040F6FC70B3FBF5F30133034242D0C6
:103AD000C3F30B030B43D361D4E9073011680343ED
:103AE00021F0C0010B4313609168D4E9030321F472
:103AF0000341034321F0FF010B439360D4E90530F8
:103B0000D168034321F0FF010B43D360136843F0F6
:103B10000103136000202023206484F83D302063DB
:103B200084F83E0080E7A06850B905EB4505B3FB7B
:103B3000F5F30133C3F30B037BB143F40043C9E74F
:103B400019204543B3FBF5F30133C3F30B0323B152
:103B500043F44043BEE70423BCE70123BAE700BFB8
:103B6000A08601007F841E00FF083D0040420F0038
:103B70002DE9F043044685B098460C9F0D469146CA
:103B8000FFF7DCF894F83D30202B064604D00225E0
:103B9000284605B0BDE8F08300905D491923012255
:103BA0002046FFF754FE0028F1D194F83C30012B59
:103BB000EDD02168012384F83C300B68DA075EBF42
:103BC0000B6843F001030B600B6823F400630B6088
:103BD000212384F83D30102384F83E3000232364F1
:103BE000A4F82A80638D23854A4BE362E36AC4F814
:103BF0002490082B04D0012B02D013F5803F04D170
:103C00000B6843F480730B6002E0236B122BF7D038
:103C1000002200963B464FF001112046FFF717FEA9
:103C2000226838B11368DB0544BF4FF40073236486
:103C30000125ADE72369B3F5804F21D105F0FE05DD
:103C40001561354933463A462046FFF732FE0546B0
:103C50000028EDD1236803905A6903929B6903936E
:103C6000039B238DF3B921680A6842F400720A604D
:103C7000202284F83D2084F83C3084F83E3087E7E9
:103C8000EB1103F0060343F0F003136123493346BD
:103C90003A462046FFF70DFE0028C9D12368EDB251
:103CA0001D61CEE7324639462046FFF792FE40B10D
:103CB000236C042BBCD12268136843F40073136097
:103CC000B6E7636A20681A4612F8011B0161626256
:103CD000628D013A92B26285228DD0F814C0511ED5
:103CE00089B21CF0040F21850AD049B159780161CD
:103CF00002336362638D013B9BB2023A6385228586
:103D0000324639462046FFF73EFE0028A9D0CFE7CD
:103D1000020010000000FFFF020001000800010087
:103D20002DE9F043044689B09846109F0E4691460F
:103D3000FFF704F894F83D30202B054604D0022606
:103D4000304609B0BDE8F08300909A49192301225A
:103D50002046FFF77CFD0028F1D194F83C30012B80
:103D6000EDD02168012384F83C300B68DB075EBF8F
:103D70000B6843F001030B600B6823F400630B60D6
:103D8000222384F83D30102384F83E30002323643E
:103D9000A4F82A80638D2385874BE362E36A0A686F
:103DA000C4F8249042F48062082B0A6004D0012BEE
:103DB00002D013F5803F04D10B6843F480730B608D
:103DC00002E0236B112BF7D03B46009500224FF009
:103DD00001112046FFF73BFD236838B11B68D80569
:103DE00002D54FF4007323640126A9E72269B2F5D6
:103DF000804F27D146F00106F6B21E616F492B466F
:103E00003A462046FFF755FD06460028ECD1238DA3
:103E10002168002B4BD103904B6903938B6903936B
:103E2000039B0B6843F400730B60DFF89881238DCC
:103E3000002B64D1202284F83D2084F83C3084F8A3
:103E40003E307DE74FEAE61808F0060848F0F00239
:103E50001A615B492B463A462046FFF72AFD0028A7
:103E6000C2D123685549F6B21E613A462B46204618
:103E7000FFF71FFD0028B7D1236807905A69079202
:103E80009A690792079A1A6842F480721A604FF092
:103E90000111024600953B462046FFF7D8FC2268F8
:103EA00008B113689BE748F0F1031361A6E7012B03
:103EB0000AD10B6823F480630B6004904B69049370
:103EC0008B690493049BACE7022B0B680DD123F4A0
:103ED00080630B600B6843F400630B6005904B69D3
:103EE00005938B690593059B9FE743F480630B6003
:103EF00006904B6906938B690693069B95E7032B07
:103F000062D8012B16D12A4639462046FFF70CFD10
:103F100000287FF469AF23681A69636A1A70636ABC
:103F200001336362238D013B2385638D013B9BB28B
:103F300063857CE7022B00953B464FF0000241462B
:103F400020461AD1FFF783FC00287FF44DAF236889
:103F50001A6842F400721A601A69636A1A70626A17
:103F6000531C6362238D013B2385638D013B9BB210
:103F7000638523681B695370D1E7FFF768FC00284D
:103F80007FF432AF23681A6822F480621A601A69DB
:103F9000636A1A70636A009501336362238D013B83
:103FA0002385638D013B9BB2638502463B464146B8
:103FB0002046C7E7020010000000FFFF02000100DA
:103FC00008000100040001002A4639462046FFF798
:103FD000ABFC00287FF408AF23681A69636A1A7083
:103FE000626A531C6362238D013B2385638D013B11
:103FF0009BB263852368596949077FF518AFB9E714
:10400000044B01221A62044B82B01B680193019B8E
:1040100002B0704700000E4200700040044B0022C6
:104020001A62044B82B01B680193019B02B0704777
:1040300000000E42007000402DE9F341044640B3F9
:104040000368DD0710D4236898075ED423681A0735
:1040500000F1A08023685B0700F1C080A069002800
:1040600040F0288100202BE08F4B9A6802F00C0270
:10407000042A07D09A6802F00C02082A0BD15A6869
:10408000510208D5884B1B689A03DCD56368002B66
:10409000D9D1012014E06268B2F5803F13D11A68CB
:1040A00042F480321A60FEF749FE7F4E05463368BF
:1040B0009B03C8D4FEF742FE401B6428F7D90320B7
:1040C00002B0BDE8F081784DB2F5A02F2B6807D182
:1040D00043F480232B602B6843F480332B60E2E7AA
:1040E00023F480332B602B6823F480232B60002A79
:1040F000D9D1FEF723FE06462B689F03A3D5FEF712
:104100001DFE801B6428F7D9D9E7674B9A6812F027
:104110000C0F07D09A6802F00C02082A11D15B68D4
:104120005E020ED4604A13689D0702D5E368012B36
:10413000AFD11368216923F0F80343EAC103136088
:1041400084E7E268594BB2B101221A60FEF7F6FD2E
:10415000554D06462B68980707D52B68226923F032
:10416000F80343EAC2032B6070E7FEF7E7FD801B0C
:104170000228EFD9A3E71A60FEF7E0FD4A4E054694
:10418000336899077FF562AFFEF7D8FD401B022820
:10419000F6D994E76269454B82B10122C3F8802EBB
:1041A000FEF7CCFD404E0546736F9F073FF552AFBB
:1041B000FEF7C4FD401B0228F6D980E7C3F8802E25
:1041C000FEF7BCFD384E0546736F98077FF542AF8A
:1041D000FEF7B4FD401B0228F6D970E7324B1A6C8B
:1041E00012F0805228D101921A6C42F080521A6467
:1041F0001B6C03F080530193019B01272C4D2B680E
:10420000D9051BD5A368284D012B27D12B6F43F06F
:1042100001032B67FEF792FD234E054641F28838D5
:10422000336F9B0739D5002F3FF418AF1E4A136C2C
:1042300023F08053136411E70027DFE72B6843F472
:1042400080732B60FEF77AFD06462B68DA05D9D419
:10425000FEF774FD801B0228F7D930E7052B04D147
:104260002B6F43F004032B67D0E72A6F22F0010283
:104270002A672A6F22F004022A67002BCAD1FEF7B0
:104280005DFD41F2883806462B6F9807CBD5FEF7C7
:1042900055FD801B4045F7D911E7FEF74FFD401B48
:1042A0004045BDD90BE700BF00380240000047423F
:1042B00000700040364DAB6803F00C03082B3DD076
:1042C000344B002202281A662BD1FEF737FD064632
:1042D0002B6899011FD4D4E907321343626A43EA79
:1042E0008213E26A43EA0263A26A5208013A43EA8D
:1042F00002436B60274B264D01221A66FEF71EFD16
:1043000004462B689A013FF5ADAEFEF717FD001B82
:104310000228F6D9D3E6FEF711FD801B0228D7D973
:10432000CDE6FEF70BFD04462B689B017FF59AAEA8
:10433000FEF704FD001B0228F6D9C0E601283FF471
:10434000BFAE6B68E26903F4800191427FF4A1AED5
:10435000216A03F03F028A427FF49BAE616A47F60E
:10436000C0721A40B2EB811F7FF493AEA26A52086A
:1043700003F44031013AB1EB024F7FF48AAEE26AB6
:1043800003F07063B3EB026F3FF46CAE81E600BFE5
:104390000038024000004742134908B58B6803F01B
:1043A0000C03042B1CD0082B1CD14A684B684968AD
:1043B00013F4800314BF0D480D48C1F3881118BFD2
:1043C000002302F03F02A1FB0001FCF7FFFB064BBC
:1043D0005B68C3F3014301335B00B0FBF3F008BD3E
:1043E0000248FCE70248FAE70038024040787D01C5
:1043F0000024F4002DE9F0410D46044610B90120D7
:10440000BDE8F081444B1A6802F007028A4228D3C3
:10441000226897072DD4D00741D43F4B1A6802F089
:104420000702AA4266D8226851076CD4130707D541
:104430003A4A2169936823F4604343EAC1039360D5
:10444000FFF7AAFF354B364A9B68C3F30313D35CCF
:10445000D840344B1860344B1868FEF725FC002018
:10446000CEE7CAB21A701B6803F007038B42C6D1AD
:10447000CEE72A4B12F0040F1EBF996841F4E051B9
:104480009960160742BF996841F4604199602349D9
:10449000A0688B6823F0F00303438B60BBE762687E
:1044A0001E4B012A1CD11B6813F4003FA7D01B4EE2
:1044B000B36823F003031343B360FEF73FFC41F2FC
:1044C00088380746B368626803F00C03B3EB820FC9
:1044D000A3D0FEF733FCC01B4045F3D903208FE780
:1044E000911E01291B6802D813F0007FDEE713F04C
:1044F000020FDBE7EAB21A701B6803F00703AB4256
:104500007FF47DAF8FE70549E0688B6823F4E053C3
:1045100003438B608AE700BF003C02400038024042
:1045200061750008140000201C000020044B054A9F
:104530009B68C3F38223D35C034A1068D84070475A
:10454000003802407175000814000020044B054A31
:104550009B68C3F34233D35C034A1068D84070476A
:10456000003802407175000814000020036A23F02F
:1045700001030362036A70B5446882690D6822F022
:1045800073022A438D6823F002032B430E4DA84289
:1045900002D00E4EB04210D1CE6823F00803334350
:1045A000A84223F0040302D0084DA84205D1D1E966
:1045B000055624F4407435432C43446082614A68B4
:1045C0004263036270BD00BF00000140000401406F
:1045D000036A23F480730362036A70B54468C26996
:1045E0000D6822F073022A438D6823F4007343EAB6
:1045F0000523114DA84203D005F58065A84214D1CA
:10460000CD6823F4006343EA05230B4DA84223F44D
:10461000806303D005F58065A84206D1D1E905562F
:1046200024F44054354344EA05144460C2614A68A6
:10463000C263036270BD00BF00000140036A23F43F
:1046400080530362036A30B54468C2690D6822F47E
:10465000E64242EA05228D6823F4005343EA05331B
:10466000084DA84203D005F58065A84204D14D69E4
:1046700024F4804444EA85144460C2614A680264B8
:10468000036230BD0000014030B590F83E2090F844
:104690003F3090F8425090F84340D2B2DBB2EDB2D6
:1046A000E4B2C9B9012A46D1012D46D1022380F8CE
:1046B0003E3080F8423003681A6A22F001021A6222
:1046C0001A6A42F001021A620268136843F0010399
:1046D00013600023184630BD042911D1012B2AD1C3
:1046E000012CF7D1022380F83F3080F84330036873
:1046F0001A6A22F010021A621A6A42F01002E2E705
:10470000012A18D1012B18D1012DE3D1012CE1D1BF
:10471000022380F83E3080F83F3080F8423080F845
:10472000433003681A6A22F001021A621A6A42F0E0
:1047300001021A62DCE70123CCE71346CAE7082925
:1047400010D004D841B1042909D0002070470C29A9
:10475000FBD10368186C70470368586B7047036897
:10476000986B70470368D86B704770477047704705
:10477000704703681A69910710B504460ED5DA68C8
:1047800092070BD56FF002021A61012202779B6932
:104790009B0777D0FDF700F90023237723681A6978
:1047A000500710D5DA6851070DD56FF004021A6171
:1047B000022222779B6913F4407F204668D0FDF7E0
:1047C000EBF80023237723681A6912070FD5DA68FC
:1047D00010070CD56FF008021A6104222277DB69FA
:1047E000990720465AD0FDF7D7F80023237723688E
:1047F0001A69D20610D5DA68D0060DD56FF010020E
:104800001A6108222277DB6913F4407F20464BD0DF
:10481000FDF7C2F80023237723681A69D10708D56A
:10482000DA68D20705D56FF001021A612046FFF75A
:104830009CFF23681A69100608D5DA68110605D5A9
:104840006FF080021A61204600F0DDFC23681A69CF
:10485000520608D5DA68500605D56FF040021A6195
:104860002046FFF785FF23681A69910622D5DA688A
:1048700092061FD56FF0200220461A61BDE8104055
:1048800000F0C0BCFFF772FF2046FFF770FF83E720
:10489000FFF76CFF2046FFF76AFF92E7FFF766FF1E
:1048A0002046FFF764FFA0E7FFF760FF2046FFF711
:1048B0005EFFAFE710BD0000304A0368904212D09F
:1048C000B0F1804F0FD0A2F57C4290420BD002F5A0
:1048D0008062904207D002F58062904203D002F5D8
:1048E0007842904219D14A6823F070031343234A57
:1048F000904229D0B0F1804F26D0A2F57C42904260
:1049000022D002F5806290421ED002F58062904271
:104910001AD002F57842904216D0194A904213D02C
:1049200002F5806290420FD002F5806290420BD077
:10493000A2F59832904207D002F58062904203D0EF
:1049400002F58062904203D1CA6823F44073134396
:104950004A6923F08003134303608B68C3620B68CA
:104960008362064B984203D003F58063984201D1DD
:104970000B69036301234361704700BF00000140DE
:104980000040014010B5044630B390F83D3003F0CC
:10499000FF021BB980F83C20FEF768F8022320686C
:1049A00084F83D30211DFFF787FF012384F846304E
:1049B000002084F83E3084F83F3084F8403084F89A
:1049C000413084F8423084F8433084F8443084F82D
:1049D000453084F83D3010BD0120FCE710B5044699
:1049E00030B390F83D3003F0FF021BB980F83C2053
:1049F000FDF776FF0223206884F83D30211DFFF784
:104A00005BFF012384F84630002084F83E3084F8B0
:104A10003F3084F8403084F8413084F8423084F8E4
:104A2000433084F8443084F8453084F83D3010BD7C
:104A30000120FCE710B5044630B390F83D3003F098
:104A4000FF021BB980F83C20FDF7D4FF0223206849
:104A500084F83D30211DFFF72FFF012384F84630F5
:104A6000002084F83E3084F83F3084F8403084F8E9
:104A7000413084F8423084F8433084F8443084F87C
:104A8000453084F83D3010BD0120FCE7F8B50D46F7
:104A9000044600284DD090F83D3003F0FF021BB9CA
:104AA00080F83C20FDF734FF2146022384F83D3096
:104AB00051F8040B836823F4804323F007038360D9
:104AC000FFF7FAFE20682A6886688369A968076A82
:104AD0001643AA6923F4407341EA022123F0030339
:104AE0000B4323F47C422B69E9691B0143EA012350
:104AF000E9680B43296A22F0FC0243EA01331343BD
:104B0000696927F0AA026F68866047EA0117836126
:104B100017430123076284F84630002084F83E30B2
:104B200084F83F3084F8423084F8433084F83D30D4
:104B3000F8BD0120FCE70000036A23F010030362C4
:104B4000036A70B5446882690D6822F4E64242EA5D
:104B500005228D6823F0200343EA0513104DA84277
:104B600003D005F58065A84214D1CD6823F08003F9
:104B700043EA05130A4DA84223F0400303D005F58C
:104B80008065A84206D1D1E9055624F44064354336
:104B900044EA8504446082614A688263036270BDAE
:104BA0000000014070B590F83C30012B054653D011
:104BB0000120082A85F83C003DD006D8C2B1042A5D
:104BC00028D0002385F83C3070BD0C2AF9D1286824
:104BD000FFF734FD2B680969DA6942F40062DA6193
:104BE000DA6922F48062DA61DA6942EA012231E0AC
:104BF0002868FFF7BBFC2B6809699A6942F0080234
:104C00009A619A6922F004029A619A690A439A6148
:104C10000020D6E72868FFF78FFF2B6809699A699B
:104C200042F400629A619A6922F480629A619A69F8
:104C300042EA0122EBE72868FFF7CAFC2B68096902
:104C4000DA6942F00802DA61DA6922F00402DA6114
:104C5000DA690A43DA61DBE70220B5E770B5046A76
:104C60001A4E24F001040462B0428469056A29D016
:104C7000B0F1804F26D0A6F57C46B04222D006F592
:104C80008066B0421ED006F58066B0421AD006F5A6
:104C90007846B04216D006F57056B04212D0A6F54E
:104CA0009436B0420ED044F001021B01DBB222F078
:104CB000F0021A4301F00A0125F00A031943826148
:104CC000016270BD24F003042243EEE700000140BE
:104CD000F8B590F83C30012B05460C4600F0898071
:104CE000012085F83C009AB9CB682868D1E9001208
:104CF000FFF7B4FF2B68A1689A6922F00C029A6151
:104D00009A690A439A610020002385F83C30F8BD77
:104D1000042A23D12B681E6A26F01006D1E9002749
:104D2000C9681E6298691E6A20F4407040EA072034
:104D3000090320F4704089B21201014302F0A0027D
:104D400026F0A000024399611A629A69A16822F4D0
:104D500040629A619A6942EA0122D3E7082A22D185
:104D60002B681E6A26F48076D1E90020C9681E628D
:104D7000DF691E6A27F003073843090120F0F000BD
:104D8000C9B21202014302F4206226F420600243F9
:104D9000D9611A62DA69A16822F00C02DA61DA6973
:104DA0000A43DA61AFE70C2AAED12B681E6A26F4FB
:104DB0008056D1E90027C9681E62D8691E6A20F4AE
:104DC000407040EA0720090320F4704089B21203C2
:104DD000014302F4204226F420400243D9611A62C2
:104DE000DA69A16822F44062DA61DA6942EA0122F2
:104DF000D7E702208BE710B58468114324F47F4481
:104E000041EA03232343836010BD70B590F83C3022
:104E1000012B04464FF0020300F09180012280F83C
:104E20003D3080F83C200068836823F47F4323F002
:104E3000770383600B68602B52D033D8402B67D048
:104E400016D8202B0DD00AD833F0100109D0012339
:104E500084F83D30002384F83C30104670BD302B80
:104E6000F5D1826822F07002134343F0070317E084
:104E7000502BECD14A68CE68016A056A25F001051D
:104E80000562836921F00A0123F0F00343EA061367
:104E90000A4383610262836823F0700343F057037F
:104EA000836011E0B3F5805F0ED0B3F5005F0DD0E5
:104EB000702BCCD1CB68D1E90121FFF79CFF226890
:104EC000936843F0770393600022C0E7CB68D1E991
:104ED0000121FFF790FF2268936843F48043F2E7D3
:104EE0004D68CE68016A21F0100101628269036A8F
:104EF00022F4704223F0A00343EA051342EA06328B
:104F000082610362836823F0700343F06703C7E79D
:104F10004A68CE68016A056A25F001050562836961
:104F200021F00A0123F0F00343EA06130A438361E8
:104F30000262836823F0700343F04703B0E71A4628
:104F40008BE7036A01F01F0110B501248C4023EAAE
:104F500004030362036A8A401A43026210BD000020
:104F600010B5044629B990F83E30012B18D0012025
:104F70002DE004290DD190F83F30013B18BF0123EB
:104F8000002BF4D104294FF0020321D184F83F30E3
:104F900009E008290CBF90F8403090F84130ECE768
:104FA000022380F83E3020680122FFF7CAFF236801
:104FB0001C498B4213D01C4A934210D0B3F1804F4E
:104FC00014D19A6802F00702062A26D1002010BDEB
:104FD00008290CBF84F8403084F84130E3E75A6C6C
:104FE0008B4242F400425A64EBD0E7E70F4A934207
:104FF000E7D002F580629342E3D002F580629342EB
:10500000DFD002F578429342DBD002F57052934232
:10501000D7D0A2F594329342D3D01A6842F001025D
:105020001A60D3E700000140000401400004004082
:10503000FFF796BF10B50446002943D190F83E30E3
:1050400090F84200DBB2012BC0B272D1012870D1BE
:10505000022300294CD1226884F83E3084F8423083
:10506000D36843F00203D36020680122FFF769FF91
:105070002368314A93421AD0B3F1804F17D0A2F57A
:105080007C42934213D002F5806293420FD002F526
:10509000806293420BD002F57842934207D002F52A
:1050A0007052934203D0A2F59432934204D19A688D
:1050B00002F00702062A03D01A6842F001021A60C1
:1050C000002037E0042905D190F83F3090F84300E4
:1050D000DBB2B8E708290BBF90F8403094F84130B4
:1050E00090F8440094F845000CBFDBB2DBB2AAE7AD
:1050F000042908D1226884F83F3084F84330D3680B
:1051000043F00403AFE7082908D1226884F840304F
:1051100084F84430D36843F00803A4E70C2984F8EA
:10512000413084F8453005D12268D36843F010033C
:1051300099E7012010BD00BF0000014030B590F894
:105140003C30012B4FF0020332D080F83D30036831
:105150000D685C689A6824F070042C435C60154C00
:10516000A3421AD0B3F1804F17D0A4F57C44A342D8
:1051700013D004F58064A3420FD004F58064A342E9
:105180000BD004F57844A34207D004F57054A34231
:1051900003D0A4F59434A34204D1496822F08002DC
:1051A0000A439A60012380F83D30002380F83C30A8
:1051B000184630BD0000014090F83C30012B1FD054
:1051C000CB688A6823F4407313434A6823F48063EE
:1051D00013430A6823F4006313430A6923F48053DA
:1051E00013434A6923F400531343CA6923F48043E9
:1051F000134302685364002380F83C30184670471C
:105200000220704770477047026802F10C0353E8B0
:10521000003F23F490730C3242E800310268002909
:10522000F2D102F1140353E8003F23F0010302F12D
:10523000140C4CE800310029F3D1036B012B0BD186
:1052400002F10C0353E8003F23F0100302F10C0CB1
:105250004CE800310029F3D1202380F83E300023B0
:10526000036370470268C168136923F440530B431A
:1052700070B51361054683680069D16803436869A6
:105280000343E86921F4164121F00C0103430B4369
:10529000D3605369A96923F440730B4353611F4BD7
:1052A0009A4203D003F580639A4223D1FFF74EF967
:1052B000EB691921B3F5004FD5E90046A0FB0101C8
:1052C0001BD1B2194FF000035B41FBF77FFC642157
:1052D000B0FBF1F501FB1503DB003233B3FBF1F357
:1052E00003F007025B0002EB051203F4F8731344AA
:1052F000A36070BDFFF71AF9DAE7B200B30FFBF74E
:1053000065FC6422B0FBF2F102FB11031B01323396
:10531000B3FBF2F303EB0113EAE700BF0010014017
:10532000F8B504460E4617461D462268136836EA4D
:10533000030301D1002028E06B1CF7D025B1FDF755
:10534000FDFCC01B8542F0D2226802F10C0353E839
:10535000003F23F4D0730C3242E80030216800286B
:10536000F2D101F1140353E8003F23F0010301F1EE
:10537000140040E80032002AF3D1202384F83D30A5
:1053800084F83C2084F83E300320F8BD10B5044674
:1053900040B390F83D3003F0FF021BB980F83C2089
:1053A000FDF7C6FB2268242384F83D30D36823F43C
:1053B0000053D3602046FFF755FF23681A6922F493
:1053C00090421A615A6922F02A025A61DA6842F45C
:1053D0000052DA6000202023206484F83D3084F8F5
:1053E0003E3010BD0120FCE7F7B5174690F83D2090
:1053F0000093202A04460E4649D1002945D0002FAB
:1054000043D090F83C20012A41D0012280F83C2072
:1054100000252122056480F83D20FDF78FFCA1685E
:10542000009BA784B1F5805F0246E78403D1216920
:1054300009B935460E46002184F83C10E18C89B24A
:1054400041B940212046FFF76BFF60B9202384F863
:105450003D3009E080212046CDE90023FFF760FFC1
:10546000DDE9002310B1032003B0F0BD20684EB980
:1054700035F8021BC1F308014160E18C013989B2A2
:10548000E184DBE716F8011BF6E70120ECE70220D8
:10549000EAE77047704708B5806B0023C385C38473
:1054A000FFF7F8FF08BD704707B58168836A026897
:1054B000B1F5805F3ED1016900293ED15268C2F347
:1054C000080223F8022B8362C38D013B9BB2C38584
:1054D000002B2CD10268D16821F02001D160D16865
:1054E00021F48071D160516921F0010151612022C4
:1054F00080F83E20026B012A026828D1036302F182
:105500000C0353E8003F23F0100302F10C0C4CE8AD
:1055100000310029F3D11368DB0605D5019113682A
:10552000019353680193019B818DFFF7BCFF03B08A
:105530005DF804FB39B9016929B95268D2B21A7011
:10554000836A0133BFE7526802F07F02F7E7FCF796
:10555000E9FAECE7036837B51A68D9685D6912F0B3
:105560000F0F04460CD1950670D58D066ED590F8B8
:105570003E30222B64D103B0BDE83040FFF794BF2A
:1055800005F0010001F4907505435FD0D50705D5FE
:10559000CB0542BF236C43F001032364550704D5B8
:1055A00018B1236C43F002032364930704D518B1A8
:1055B000236C43F004032364150707D501F020038F
:1055C00003431EBF236C43F008032364236C002BAA
:1055D00036D0900608D58A0606D594F83E30222BA0
:1055E00002D12046FFF760FF23685B69256C03F05A
:1055F000400305F008051D43204623D0FFF704FEB5
:10560000226853695B0618D502F1140353E8003F82
:1056100023F0400302F1140040E800310029F3D1E7
:10562000A06B50B1724B0365FDF748FF40B1A06B12
:10563000036D03B0BDE8304018472046FFF72AFF4E
:1056400003B030BDFFF726FF2564F9E7206B012882
:1056500040F09180D50640F18E80C80640F18B80E5
:10566000002201921A6801925A680192019A5A69BD
:1056700055064CD5A16B0A68526892B2002ADFD059
:10568000A08D9042DCD9E285CA69B2F5807F36D020
:1056900003F10C0252E8002F22F4807203F10C0097
:1056A00040E800210029F3D103F1140252E8002F51
:1056B00022F0010203F1140040E800210029F3D197
:1056C00003F1140252E8002F22F0400203F114000B
:1056D00040E800210029F3D1202284F83E202163F4
:1056E00003F10C0252E8002F22F0100203F10C002B
:1056F00040E800210029F3D1A06BFDF79BFEE38D6C
:10570000A18DC91A89B22046FFF7CDFE98E7E18D39
:105710008AB2E18D89B2002992D0A18D891A89B20D
:1057200000298DD003F10C0252E8002F22F4907270
:1057300003F10C0545E800200028F3D103F1140221
:1057400052E8002F22F0010203F1140545E8002081
:105750000028F3D1202284F83E20206303F10C02BC
:1057600052E8002F22F0100203F10C0545E800205A
:105770000028F3D1C7E7100628D50D0626D594F8E2
:105780003D20212A7FF45CAFA168226AB1F5805FD9
:1057900017D12169A9B932F8021BC1F30801596078
:1057A0002262E28C013A92B2E284002A7FF448AF8E
:1057B000DA6822F08002DA60DA6842F04002DA60E9
:1057C0003EE7511C216212785A60EAE750067FF5E5
:1057D00037AF4A067FF534AFDA6822F04002DA606C
:1057E000202384F83D302046FFF753FE28E700BF12
:1057F00097540008C285002382852222036480F822
:105800003E20026980F83C30816203681AB1DA6890
:1058100042F48072DA605A6942F001025A61DA6831
:1058200042F02002DA600020704770B490F83E60C9
:10583000202E10D161B15AB190F83C40012C0AD011
:10584000012480F83C400024046370BCFFF7D2BF01
:10585000012070BC70470220FBE708B500F044FA55
:10586000002008BDEFF305830BB100F083BA00F010
:105870007BBA70B5054646692A69B5F908400B46FA
:1058800086B0D0E9001076B1AD6965B1842C14BF43
:1058900003340024CDE90165009400F0C0F90590BF
:1058A000059806B070BD842C14BF0334002405ADE8
:1058B000CDE9004592B200F0EAF90128F0D00020CD
:1058C000EFE708B5012838BF012000F06BFB00208E
:1058D00008BD00F108034FF0FF32C0E90223436026
:1058E000036100230360704700230361704743682E
:1058F0004B609A688A609A68516099600368086191
:1059000001330360704730B50C68631C0AD103692A
:105910005A684A6091608B6059600368086101337E
:10592000036030BD00F10802134652681568A542B5
:10593000FAD9EDE7D0E9011203698A60516059682C
:10594000814208BF5A60002202611A68013A1A6057
:10595000186870472DE9F041044600F0FBFB2F4B1F
:105960002F4E1A682F4F01321A603568002D4AD128
:1059700034601B68012B1FD1B84640460135FFF744
:10598000A8FF072D08F11408F7D1DFF8C080264DD5
:105990004046FFF79EFF2846FFF79BFF2348FFF78F
:1059A00098FF2348FFF795FF2248FFF792FF224B0D
:1059B000C3F80080214B1D60214A22491368086802
:1059C00001331360E26A01239340034314200B6008
:1059D00000FB0270211DFFF78AFF00F0DBFB1A4B72
:1059E0001B6873B13368DA6AE36A9A4209D24FF0EE
:1059F000E0234FF08052C3F8042DBFF34F8FBFF365
:105A00006F8FBDE8F081104B1B68002BD4D1336839
:105A1000DA6AE36A9A4298BF3460CDE7744700209F
:105A2000DC460020E84600209C470020BC470020C0
:105A3000E8470020D4470020E0460020E44600204C
:105A40008047002084470020D0470020884700205E
:105A5000F8B51A4B1A4E1D680446306804300F46DC
:105A6000FFF768FF40B932681649D06A0B68012217
:105A7000824023EA02030B60631C07D137B131680F
:105A80001148BDE8F8400431FFF731BF33682C19E5
:105A90005C6007D30D4B18683168BDE8F8400431ED
:105AA000FFF731BF0A4B186831680431FFF72BFF4D
:105AB000084B1A68A24288BF1C60F8BDFC47002052
:105AC000DC46002084470020D4470020E446002024
:105AD000E0460020B0470020064A13681968064BCC
